:10400000007F0020054100002D4400000141000018
:104010000141000001410000014100000141000098
:1040200000000000000000000000000061AD000082
:1040300001410000000000001DAD00000141000032
:104040000000000000000000000000000000000070
:104050000000000000000000000000000000000060
:104060000000000000000000000000000000000050
:104070000000000000000000000000000000000040
:104080000000000000000000000000000000000030
:104090000000000000000000000000000000000020
:1040A0000000000000000000000000000000000010
:1040B0000000000000000000000000000000000000
:1040C00010B5054C237833B9044B13B10448AFF352
:1040D00000800123237010BD183300200000000071
:1040E000106B010008B5034B1BB103490348AFF344
:1040F000008008BD000000001C330020106B010090
:1041000000BE704708B500F005F806F047FFFEE76F
:10411000704700BF70B5434A434B444C4FF47005A1
:104120004AF202500121C2F8885082B09460A3F88C
:10413000FE031A4683F81F1492F8B134DB06FBD550
:1041400000204FF425460446A2F8FE63FFF7E0FF87
:1041500000F0B8F88DF8074001209DF8073000F016
:10416000C5F9EFF31082012585F31088304B99686B
:1041700021F000419960996882F310882D4A1168F6
:10418000C1F300018DF807101168C1F300018DF82B
:1041900007101268C2F300028DF80720EFF31082B7
:1041A00085F31088996841F0004199609B6882F31B
:1041B0001088284600F06AF92846FFF7A9FF1E4B31
:1041C0001E499C801E801E4E9E601E481E4E1F4A29
:1041D000DE604FF48056A1F82061121A9D802146BE
:1041E00010F071FB1A481B4A1B491C4D121A10F0A3
:1041F0005FFB1B4B5B1BA3424FEAA30605DD0134AB
:1042000055F8043B9847A642F9DC00F047F8022035
:10421000FFF77EFF00F026F9002002B0BDE87040F5
:1042200000F0CEB800ED00E000E0014000400000EA
:10423000FC6F044000080440000D00400060004096
:10424000007B002018330020007F002078460020EB
:1042500000000020FC3200201C6B0100D032002046
:10426000EC3200200C4A92F8363063B10A4A92F8D8
:10427000A030D906FBD4084982F8A00091F8A030FC
:10428000DB06FBD4704792F83C30DB07EED492F8A3
:104290003C30DB07F7D5E9E700E00140064B074972
:1042A00093F826001A6A51F820300549C2F30262D9
:1042B000D3400B60704700BF00E00140FC3200209B
:1042C0004445002070B5374C374B3848384A626057
:1042D000384900224AF20355A3F8FE53A0F8002102
:1042E00021604FF4004193F82600E2606261A16012
:1042F0002161196A54F820202F4DC1F30261CA4090
:10430000082009212A6083F8130483F8A21093F887
:104310008024002A3BD0244B002083F8810483F8BA
:10432000800493F8A030002B39D11F4B002283F872
:10433000362093F83C20D207FBD5012100201F4AEC
:1043400083F8311083F826001A6293F82620186A41
:1043500054F82220154CC0F30260C2402A600426A3
:1043600084224FF4254083F83E6083F83E2083F892
:10437000D0102246A3F8FE03A4F80411B2F80431C9
:104380009BB2002BFAD10123A2F8003170BD0121AC
:1043900083F8801440F2C44000F01AF8BBE7FFF73E
:1043A00061FFC2E7FC32002000E0014000C0014094
:1043B00000127A00006CDC0244450020000101106C
:1043C000704700BFA0F101000028FBD1704700BF7B
:1043D000144B70B401FB00F14FF47A761B6812485D
:1043E000B0FBF3F0A1FB064500234FF0FF32AB42D8
:1043F00008BFA24206D3B4FBF0F0800880B170BCC5
:10440000FFF7E0BF8000B1FBF0F0A0FB06018B429C
:1044100008BF8242F2D24FF0FF3070BCFFF7D2BF2C
:1044200070BC70474445002000CA9A3B0B4B70B5E6
:10443000B3F840510A4E0024ADB225FA04F3DB076D
:10444000E0B203D556F8243003B198470134102C5C
:10445000F3D1024BA3F8305170BD00BF00600040A3
:1044600048450020074830B4074D00F120040346BA
:104470001A1A13F8011BC032A34245F82210F7D1D3
:1044800030BC70475C69010000600040EFF31081B0
:10449000012383F31088124B33F8102092B22AB113
:1044A00033F81020013A92B223F8102033F810307C
:1044B0009BB28BB90B4A10B40B4CB2F8FE3334F8F4
:1044C000100043F4254323EA0003A2F8FE3381F3EE
:1044D00010885DF8044B704781F31088704700BF67
:1044E0000846002000E00140305C010030B4EFF3EA
:1044F0001081012383F310880C4A32F810309BB2EC
:1045000053B90B4C0B4DB4F8FE3335F8105043F44F
:1045100025432B43A4F8FE3332F8103001339BB20D
:1045200022F8103081F3108830BC70470846002014
:1045300000E00140305C0100B0B586B000AF7861AA
:1045400087ED020B87ED001B7B69DBB2012118466A
:104550000AF070F87B6901331946786900F0AAF80F
:104560004FF000024FF00003D7E900010CF054FDBA
:104570000346002B17D00F4A7B69134401221A709F
:104580007B699CB2D7E902010CF08EFD03469DB217
:10459000D7E900010CF088FD03469BB21A46294674
:1045A000204600F0CEF87B69013318461837BD4627
:1045B000B0BD00BF3433002090B587B000AFF860C5
:1045C00087ED000B07F10C031B78002B24D007F1BB
:1045D0000C031B78013BFB75FB7D114AD35C012B5F
:1045E00010D13B683B607B6883F000437B60FC7DBF
:1045F000D7E900010CF058FD03461946204600F0AB
:1046000093F809E0D7E900010CF026FD0246FB7D96
:104610001146184609F0E2FD00BF1C37BD4690BDAB
:104620003433002080B584B000AF78603B1D1B7828
:10463000002B0AD00023FB733B1D1B78013BFB734F
:10464000FB7B0021184600F035F800BF1037BD464F
:1046500080BDFFFF80B485B000AF78600023BB81D0
:104660000023FB810023FB727B68DB08BB817B6836
:10467000DBB203F00703FB72BB890D4AD25CFB7A05
:10468000012101FA03F3DBB21340DBB2FB81FB89AA
:10469000002B04D07B689BB20133FB8101E0002337
:1046A000FB81FB8918461437BD465DF8047B7047D3
:1046B0004833002080B485B000AF786039600023B3
:1046C000FB8100237B7300233B737B68DB08FB814A
:1046D0007B68DBB203F007037B737B7B012202FA6A
:1046E00003F33B733B68002B0CD13B7BDB433B73F9
:1046F000FB890C4AD15CFB893A7B0A40D1B2094A5A
:10470000D15408E0FB89074AD15CFB893A7B0A4314
:10471000D1B2044AD15400BF1437BD465DF8047BC2
:10472000704700BF4833002080B582B000AF78608A
:1047300039603968786809F051FD00BF0837BD4617
:1047400080BD80B483B000AF0346FB800B46BB80C6
:1047500013467B8000BF0C37BD465DF8047B704775
:1047600080B485B000AF786039600023FB7397F99F
:104770000F3018461437BD465DF8047B7047FFFFC5
:1047800090B585B000AF786039600023FB727B681C
:10479000002B02D14FF0FF3357E03B68002B02D1D2
:1047A0004FF0FF3351E02B4BD3E900014FF00002F3
:1047B0004FF040430CF008FC0346002B06D03B684A
:1047C000D3E90034234AC2E9003405E0214BD3E9A0
:1047D00000343A68C2E900341E4BD3E900347B68E8
:1047E0005B681B681C4A13607B685B685B681B4ADC
:1047F00013607B685B689B68194A13607B685B6821
:10480000DB68184A1360184B00221A6001F020F888
:104810000023FB600023FB6007E0144AFB68144997
:1048200042F82310FB680133FB60FB68012BF4D9CD
:1048300000F094FC0346FB7297F90B30002B02D179
:104840000C4B01221A7097F90B3018461437BD46ED
:1048500090BD00BF18320020C8330020CC330020A8
:10486000D0330020D4330020D8330020543300202C
:10487000B5580000C633002080B586B000AF786020
:104880000023FB7500233B610023FB732A4B1B783D
:10489000DBB2002B0CBF01230023DBB2BB73274B21
:1048A00002221A707B68002B0BD1234B1B78DBB2E2
:1048B000002B06D1224B1B78DBB2002B01D1012348
:1048C00000E00023FB7316E00A2005F037FF3B6988
:1048D00003F51C5310333B617B68B3F1FF3F05D0F8
:1048E0003A697B689A4201D9012300E00023FB73F7
:1048F000002000F079FC104B1B78DBB2002B07D1B5
:104900000F4B1B78DBB2002B02D1FB7B002BDBD0E3
:104910000A4B03221A70FB7B002B01D09C23FB75F2
:10492000BB7B002B01D001F0BFF897F91730184678
:104930001837BD4680BD00BFC4330020C6330020F9
:10494000C533002080B588B000AF034687ED000B6B
:10495000FB810023FB770123BB774FF000024FF070
:104960000003D7E900010CF039FB0346002B02D00D
:104970004FF0FF3345E0FB89FF2B02D94FF0FF33A7
:104980003FE0224B1B78DBB2032B04D01F4B1B787C
:10499000DBB2012B02D11D4B04221A70FB89012BC3
:1049A00015D8FB891A4A52F82330002B0FD001F09A
:1049B00019FC03467B777B7F022B08D1FB89144AC5
:1049C00052F82330FA89104698470346BB77FB8993
:1049D0007B83FB89184697ED000B00F07DFB786127
:1049E000BB7F002B07D07B8B7969184601F0DAFB7F
:1049F0000346FB7703E07B8B184601F026FC97F912
:104A00001F3018462037BD4680BD00BFC63300208A
:104A10005433002080B582B000AF0023FB7100202A
:104A200000F0E2FB0346FB7197F9073018460837A0
:104A3000BD4680BD80B582B000AF0023FB710B4B3B
:104A400006221A7000F054FC0346FB710822002174
:104A500007480FF038FF00F0ADFF044B00221A703A
:104A600097F9073018460837BD4680BDC633002089
:104A70005433002080B400AF034B1B78DBB21846E0
:104A8000BD465DF8047B7047C533002080B400AF9D
:104A9000034B1B78DBB21846BD465DF8047B7047BC
:104AA000DC330020F0B58FB000AF87ED040BF86069
:104AB000B9607A60FB68D3E900341A462346D7E927
:104AC00004010CF095FA0346002B26D00023BB62AC
:104AD000FB68D3E900341A462346D7E904010BF0FA
:104AE00053FE03460C461D462646FB680833D3E9B1
:104AF0000001FB68D3E900341A4623460BF044FE5C
:104B000003460C461A462346284631460CF01EF949
:104B100003460C46C7E90C3497E07B68DB00FA6873
:104B20001344D3E900341A462346D7E904010CF0B4
:104B300055FA0346002B53D07B685B08FB620023C9
:104B4000BB627B687B6218E0FB6ADB00FA68134497
:104B5000D3E900341A462346D7E904010CF03EFAA3
:104B60000346002B02D0FB6A7B6201E0FB6ABB625A
:104B70007A6ABB6A13445B08FB627A6ABB6AD31A1F
:104B8000012BE1D8BB6ADB00FA681344D3E9003497
:104B90001A462346D7E904010BF0F6FD03460C46FE
:104BA0001D462646BB6A0133DB00FA681344D3E98D
:104BB0000001BB6ADB00FA681344D3E900341A46EB
:104BC00023460BF0E1FD03460C461A4623462846D1
:104BD00031460CF0BBF803460C46C7E90C3434E010
:104BE0007B68013BBB627B6803F10053013BDB0048
:104BF000FA681344D3E900341A462346D7E904017E
:104C00000BF0C2FD03460C461D4626467B68DB00C2
:104C1000FA681344D3E900017B6803F10053013BB8
:104C2000DB00FA681344D3E900341A4623460BF03C
:104C3000ABFD03460C461A462346284631460CF087
:104C400085F803460C46C7E90C34BB6ADB00BA683A
:104C50001344D3E90034C7E90634BB6A0133DB00EF
:104C6000BA681344D3E90001D7E906230BF08CFDA1
:104C700003460C4618462146D7E90C230BF03CFFAF
:104C800003460C4618462146D7E906230BF07EFD65
:104C900003460C4644EC173BB0EE470AF0EE670AB9
:104CA0003C37BD46F0BDFFFF2DE9B04382B000AFF9
:104CB0004B4B93ED007B4FF448724A494A48B0EEA3
:104CC000470AF0EE670AFFF7EDFEB0EE407AF0EE2D
:104CD000607A464B83ED007B0320FFF7BBFC024666
:104CE000434BDA60414BD3E900013BA3D3E90023F6
:104CF0000CF07EF90346002B05D03C4BD3E9003481
:104D0000C7E9003404E034A4D4E90034C7E900342E
:104D100001231C464FF000024FF00003D7E90001C9
:104D20000CF070F90346002B01D100231C46E3B2BE
:104D300083F00103DBB2002B05D04FF000034FF0EE
:104D40000004C7E900342A4BDB6897ED000B1846D6
:104D5000FFF732FC274B9A6A01329A629B6A002B5A
:104D600003D1244BDA6A0132DA62224B9B6A18467D
:104D70000BF048FE1F4BD3E90C341A4623460BF0C8
:104D8000BBFE03460C469846A1461A4BDB6A184602
:104D90000BF038FE174BD3E90C341A4623460BF0C0
:104DA000ABFE03460C46184621464FF00002124B5C
:104DB0000BF0A2FE03460C460E4D1A462346404613
:104DC00049460BF0E3FC03460C46C5E9083400BF36
:104DD0000837BD46BDE8B0830000000000E06F402A
:104DE00000000020080000201019002010460020BC
:104DF00018460020603300200000F041FFFFFFFF55
:104E000098B500AF324B4822002118460FF05BFDE9
:104E10002F4A4FF000032F4CC2E90E342C4A28A42D
:104E2000D4E90034C2E90C34294B2B4A9A60284B50
:104E30002A4ADA60264B2A4A1A61254B294A5A61C6
:104E4000234B294A5A60284B284A1A60274B284A84
:104E50001A60264B264A5A601D4A1D4B5B68183261
:104E60009A601B4A1A4B5B6808325A60184A184B02
:104E70005B682032DA60082200211E480FF023FD13
:104E8000142200211C480FF01EFD1B4B00221A703B
:104E9000194B01221A74184B01225A609FED0A1B0C
:104EA0009FED090B0320FFF747FB0246124BDA6028
:104EB000114B01221A7200BF98BD00BFAFF30080F2
:104EC0009A9999999999C93F000000000000000043
:104ED00060330020000024406C834CACE2046D6120
:104EE000302DD187A991250DA8330020BC33002097
:104EF0003C5C01001046002018460020FFFFFFFF29
:104F000080B500AF164B1B78002B22D1144B012229
:104F10001A70134B5B68012B1BD1114B1B7A002BB2
:104F200017D00320FFF796FB02460D4BDA600C4BBF
:104F3000DB689FED090B1846FFF73EFB0320FFF7E8
:104F400089FB0246064BDA60054BDB681846FFF723
:104F500069FB00BF80BD00BF000000000000000032
:104F60001846002080B485B000AFF860B9607A6060
:104F7000FB68BA681A60FB6804337A681A6000BF7D
:104F80001437BD465DF8047B7047FFFFFFFFFFFF4E
:104F9000F0B58BB000AF87ED020B0346FB80FB88BA
:104FA000002B7BD14FF00002434BD7E902010BF0FD
:104FB000A3FD03460C46C7E906349FED3B1B97ED66
:104FC000060B0FF0B5FA54EC103B184621460CF0D6
:104FD0006BF803467B6100237B6235A3D3E9002392
:104FE000D7E906010CF018F80346002B0ED030A3C9
:104FF000D3E90023D7E906010BF0A8FE03460C46CF
:10500000184621460CF050F803467B627A6A7969AB
:105010002A48FFF7A7FF2A4BD3E900014FF000020F
:10502000284B0BF0D1FF0346002B32D1244BD3E9A0
:1050300000014FF000024FF040430BF0C5FF034664
:10504000002B26D11E4BD3E90001D7E902230BF038
:105050009BFB03460C4625461C464FF000021A4BAC
:10506000D7E902010BF048FD02460B4611461A46ED
:1050700001231E4613460A46204629460BF0AEFF82
:105080000346002B01D100231E46F3B21A460F4BF4
:105090001A700F4AD7E90234C2E9003400BF2C3736
:1050A000BD46F0BDAFF30080000000000000F041FD
:1050B0000000E0FFFFFFEF4100408F40F033002091
:1050C000183200200000F0BF0000B03CDC330020AC
:1050D000F8330020FFFFFFFF90B587B000AF87EDEA
:1050E000020B0346FB8000237B61FB88184697ED8B
:1050F000020BFFF74DFF17A3D3E90023D7E9020105
:105100000BF0FAFC03460C46184621464FF000020D
:105110000F4B0BF03BFB03460C4644EC173B9FED5B
:105120000A1BB0EE470AF0EE670A0FF001FA54ECE2
:10513000103B184621460BF0B7FF03467B617B69A5
:1051400018461C37BD4690BD000000000000F0412D
:105150000000E03F0000000080842E4190B585B043
:1051600000AF0023BB6000237B600023FB731C4A5D
:105170004FF000034FF00004C2E90034194A4FF029
:1051800000034FF00004C2E900343A1D07F10803A0
:105190001146184605F0D4F9BB687A6811461846DE
:1051A00003F006FD0346FB7397F90F30002B02D086
:1051B00097F90F3010E03A1D07F108031146184621
:1051C00005F0D5F9BB687A681146184600F000FF73
:1051D0000346FB7397F90F3018461437BD4690BD50
:1051E000E0330020E833002080B584B000AF0346F0
:1051F000FB710023FB730023BB73002005F09EFAB4
:1052000000237B7303F02CFE0346FB7397F90F30EA
:10521000002B07D097F90F3013F1020F02D00123B2
:10522000BB730BE07B7B002B04D197F90F3013F19C
:10523000020F01D0012300E000237B73BB7B002B16
:105240001BD100F0F3FE0346FB7397F90F30002BE0
:1052500007D097F90F3013F1020F02D00123BB736F
:105260000BE07B7B002B04D197F90F3013F1020F79
:1052700001D0012300E000237B73BB7B002B1BD1FB
:1052800003F096FD0346FB7397F90F30002B07D010
:1052900097F90F3013F1020F02D00123BB730BE01B
:1052A0007B7B002B04D197F90F3013F1020F01D053
:1052B000012300E000237B73FB79002B0DD000203D
:1052C00005F03CFABB7B002B02D17B7B002B01D18C
:1052D000012300E00023BB7301E00123BB73BB7B10
:1052E000002B8DD097F90F3018461037BD4680BD82
:1052F00090B583B000AF0023BB702F4B1B78DBB29F
:10530000002B02D0002000F091FF00F06BFF03465D
:10531000FB7000237B600EE00A2005F00FFA7B682B
:1053200003F51C5310337B600120FFF75DFF00F095
:1053300059FF0346FB707B68204A934202D8FB78F2
:10534000002BE9D100F05AFF0346BB7003F0B6FE14
:105350000346BB701A4B00221A701A4B00221A70B7
:10536000194B00221A60194B00221A60184B0022B8
:105370001A60184B00221A60174B00221A60174A55
:105380004FF000034FF04044C2E900340A4B0022C2
:105390001A700822002112480FF095FA114A4FF0B6
:1053A00000034FF00004C2E9003497F902301846B8
:1053B0000C37BD4690BD00BFDC330020FF2C31010F
:1053C000C4330020C5330020C8330020CC33002074
:1053D000D0330020D4330020D833002018320020EE
:1053E000F0330020F833002090B587B000AF694B50
:1053F0001B687B617B69002B00F0C880664B1B78C3
:10540000DBB2002B04D1634B1B68002B00F0BE8085
:10541000624B1B78DBB2022B40F0B880604B1B78EC
:10542000002B40F0B3807B69D3E90034C7E9023434
:105430005C4B1B78002B00F09A805B4B1B78DBB237
:10544000002B04D0584B1B78DBB2022B01D1012377
:1054500000E00023FB71544B1B78DBB2012B04D01E
:10546000514B1B78DBB2022B01D1012300E000235A
:10547000BB71FB79002B3BD04C4BD3E900341A466F
:105480002346D7E902010BF0BDFD0346002B0CD0EB
:10549000474BD3E90001454BD3E900341A46234674
:1054A0000BF09CFD0346002B18D1404BD3E9003490
:1054B0001A462346D7E902010BF0AEFD0346002B46
:1054C00016D03B4BD3E90001384BD3E900341A46E0
:1054D00023460BF079FD0346002B09D0354B1B68A2
:1054E000002B02D1344B01221A702D4B01221A706D
:1054F000BB79002B3BD02D4BD3E900341A46234611
:10550000D7E902010BF06AFD0346002B0CD0284BB3
:10551000D3E90001254BD3E900341A4623460BF0AA
:1055200071FD0346002B18D1204BD3E900341A46F5
:105530002346D7E902010BF047FD0346002B16D0A6
:105540001B4BD3E90001194BD3E900341A4623461B
:105550000BF062FD0346002B09D0164B1B68002B95
:1055600002D1154B01221A700D4B01221A700C4BFF
:105570001B78002B0CBF01230023DBB21A46094B1A
:105580001A700B4AD7E90234C2E9003400BF1C3755
:10559000BD4690BD0434002008340020243400208F
:1055A0003334002030340020203400201034002018
:1055B000283400201C3400203234002080B483B012
:1055C00000AF0023FB71974B1B78DBB2002B18D187
:1055D000954B00221A70954B00221A70944B1B7841
:1055E000DBB2002B2DD08F4B02221A70904B002281
:1055F0001A70904B1B78DBB2002B22D10123FB7178
:105600001FE08B4B00221A70874B1B78DBB2002BFC
:1056100009D0894B00221A70824B00221A70824BEB
:1056200000221A700DE0834B1B78DBB2002B02D1F5
:105630000123FB7105E07D4B1B78FB717B4B002246
:105640001A70784B1B78DBB2042B00F2CE8001A2DB
:1056500052F823F069560000975700008356000067
:1056600051570000DB560000714B1B78DBB2002B5A
:1056700000F0C8806B4B02221A706D4B00221A702A
:10568000C0E0FB79002B00F0BF806C4B1B68002B47
:105690000DDD684B1B78DBB2012B08D1674B1B6813
:1056A0001A46674B1A605F4B03221A70ACE0654BD9
:1056B0001B68002B0AD0604B01221A70614B1B68DB
:1056C0005F4A1360574B04221A709DE05A4B002228
:1056D0001A70544B00221A7096E0594B1B68002B2D
:1056E00004D0574B1B68013B554A1360544B1B6851
:1056F000002B40F08B80544B1B78DBB2012B06D182
:105700004D4B00221A70474B00221A707EE04F4B1F
:105710001B68002B0AD0484B00221A704B4B1B68A9
:10572000474A13603F4B01221A706FE0FB79002B50
:1057300007D0444B1B68424A13603A4B04221A704C
:1057400064E03D4B00221A70364B02221A705DE075
:105750003B4B1B68002B04D0394B1B68013B384A7C
:105760001360374B1B68002B52D1364B1B68002B44
:105770000AD0314B01221A70324B1B68304A136039
:10578000284B04221A7043E02B4B00221A70254B41
:1057900000221A703CE02A4B1B68002B04D0284BD7
:1057A0001B68013B264A1360254B1B68002B31D137
:1057B000FB79002B15D0234B1B68002B0AD01E4B06
:1057C00001221A701F4B1B681D4A1360154B0422DF
:1057D0001A701FE0184B00221A70124B00221A7028
:1057E00018E0104B02221A7014E0134B00221A70BA
:1057F0000E4B00221A700C4B00221A70094B00222B
:105800001A7008E000BF06E000BF04E000BF02E03D
:1058100000BF00E000BF00BF0C37BD465DF8047B51
:10582000704700BF2434002021340020333400208E
:105830002432002022340020323400201C34002086
:10584000343400202032002023340020183400207B
:1058500090B400AF0F4A4FF000034FF00004C2E9CC
:1058600000340D4B00221A700C4B1B78DAB20C4B33
:105870001A700C4B00221A700B4B00221A700B4B43
:1058800000221A600A4B00221A7000231846BD46F7
:1058900090BC70472834002030340020223400208F
:1058A00031340020323400203334002034340020DE
:1058B0002434002080B584B000AF0346FB80FB8811
:1058C000002B3FD1314B1B78DAB2314B1B789A4217
:1058D00014BF01230023DBB2FB732C4B1B78DAB21D
:1058E0002B4B1A70FB7B002B0BD02A4B00221A701B
:1058F000294B00221A70294B00221A60284B0022E3
:105900001A70224B1B78DBB2012B1BD1244B1B7866
:10591000DBB2002B04D1234B1B78DBB2002B08D168
:105920001F4B1B78DBB2012B0CD11C4B1B68012BCE
:1059300008D11A4B00221A601A4B00221A70184B19
:1059400002221A70114B1B78DBB2012B07D1164BC8
:105950001B889BB2FA889A4201D1FFF745FDFB886C
:10596000002B05D1FFF72AFE104B00221A7006E02B
:105970000E4B1B78002B02D00D4B1B7801E0054B22
:105980001B7818461037BD4680BD00BF223400206A
:1059900031340020323400203334002034340020ED
:1059A0002434002024320020003400203934002028
:1059B0003834002090B400AF264A4FF000034FF077
:1059C0000004C2E90034244B00221A70234B002249
:1059D0001A70234B00221A70224B00221A80224B8D
:1059E00000221A70214B00221A70214B00221A60EB
:1059F000204B00221A70204B00221A701F4B0022ED
:105A00001A601F4B00221A701E4A4FF000034FF01D
:105A10000004C2E900341C4B4FF47A721A601B4B2D
:105A200000221A601A4B00221A601A4B00221A70C8
:105A3000194B01221A70194B00221A70184B0022C0
:105A40001A70184B00221A7000231846BD4690BCED
:105A5000704700BF28340020303400202434002058
:105A60003134002000340020323400203334002050
:105A7000343400203834002039340020043400202D
:105A80000834002010340020203200201834002078
:105A90001C34002020340020243200202134002037
:105AA000223400202334002080B400AF174B1B7831
:105AB000DBB2002B25D1164B1B78DBB2002B0BD0B1
:105AC000144B1B78DBB2002B06D1134B01221A704A
:105AD000124B01221A7014E00E4B1B78DBB2002B24
:105AE0000BD00B4B1B78DBB2002B06D10A4B0022EC
:105AF0001A700A4B01221A7003E0084B00221A7038
:105B0000FFE700BFBD465DF8047B704722340020EC
:105B10002432002021340020383400203934002081
:105B200080B586B000AFF860B9607A603B60002352
:105B3000FB7503F0B7FA3861FB681B68184603F081
:105B40008DFC0021386803F03BFA0246BB681A60FE
:105B500003F026FA02467B681A60BB681B68002BBC
:105B60000FD0BB681B681946386903F021FF024655
:105B7000FB681A60FB681B68002B04D1F623FB75D9
:105B800001E0F823FB7597F9173018461837BD4622
:105B900080BD80B584B000AFF860B9607A60FB6802
:105BA000002B02D0F86803F059FC7B6800221A60D1
:105BB000002318461037BD4680BD80B485B000AFC5
:105BC000F860B9607A607B6802221A604FF0FF3398
:105BD00018461437BD465DF8047B704780B485B025
:105BE00000AF03460A46FB711346BB710523FB73E6
:105BF000FB79F02B02D90023FB7322E0FB79E32B26
:105C000005D9FB79F02B02D80123FB7319E0FB794E
:105C1000D22B02D9FB79E22B08D9FB79C02B08D112
:105C2000BB79002B05D0BB79022B02D80223FB7372
:105C300007E0FB79C72B04D9FB79D22B01D80323CA
:105C4000FB73FB7B18461437BD465DF8047B704739
:105C500080B58CB000AFF860B9607A603B60FB68DB
:105C6000BB62BB6A1B7887F82730002387F82F3088
:105C700097F82730C02B06D1BB68012B03D9BB6A2C
:105C80005B7887F82F30364B1B78002B3ED097F887
:105C90002F2097F8273011461846FFF79FFF03463D
:105CA000FB76002387F82E30FB7E052B23D0FB7E6E
:105CB0002C4A52F823307B6100233B617B69002B27
:105CC00019D097F827207B691046984738613B69BF
:105CD000002B14BF01230023DBB287F82E3097F886
:105CE0002E30002B07D03B695A687B681A603B69ED
:105CF0009A683B681A6097F82E30002B2CD17B688D
:105D0000194A1A603B68194A1A6025E097F827304B
:105D1000FF2B1BD1134B1B683B627B6800221A6070
:105D20003B6800221A603B6A002B15D03B6AFF20BB
:105D30009847F861FB69002B0ED0FB695A687B68B5
:105D40001A60FB699A683B681A6005E07B68084A3C
:105D50001A603B6800221A6000BF3037BD4680BD24
:105D60003B34002040340020BB5B0000515E00004B
:105D7000935B000080B400AF034B1B781846BD4610
:105D80005DF8047B704700BF3B34002080B483B0D3
:105D900000AF0346FB71044AFB79137000BF0C3758
:105DA000BD465DF8047B70473B34002080B400AFF3
:105DB000034B1B781846BD465DF8047B704700BF57
:105DC0003C34002080B483B000AF0346FB71064B27
:105DD0001A78FB791343DAB2034B1A7000BF0C3701
:105DE000BD465DF8047B70473C34002080B483B02E
:105DF00000AF0346FB7197F90730DB435AB2074BFC
:105E00001B785BB213405BB2DAB2044B1A7000BF6E
:105E10000C37BD465DF8047B704700BF3C34002062
:105E200080B400AF034B1B781846BD465DF8047B79
:105E3000704700BF3D34002080B400AF034B1B8887
:105E40001846BD465DF8047B704700BF3E34002015
:105E500080B487B000AF0346B9607A60FB7397F9EE
:105E60000F30002B05D1BB683B613B69FF221A70E4
:105E700070E0BB687B617B69FE221A7097F90F3076
:105E800010330F2B62D801A252F823F0455F0000B7
:105E90003D5F0000355F00002D5F0000255F0000C2
:105EA0001D5F00000D5F0000155F0000055F000032
:105EB000FD5E0000F55E0000ED5E0000D55E0000B6
:105EC000CD5E0000DD5E0000E55E00007B693022F3
:105ED0005A703FE07B6929225A703BE07B6922229D
:105EE0005A7037E07B6920225A7033E07B690022C8
:105EF0005A702FE07B6923225A702BE07B692122A4
:105F00005A7027E07B6911225A7023E07B692722AF
:105F10005A701FE07B692A225A701BE07B691022AD
:105F20005A7017E07B6924225A7013E07B6928229B
:105F30005A700FE07B6926225A700BE07B69312290
:105F40005A7007E07B6933225A7003E07B69202294
:105F50005A70FFE700BF1C37BD465DF8047B7047F1
:105F600080B487B000AF0346B9607A60FB7300234A
:105F70007B61BB68002B23D000233B6100233B6186
:105F800017E03A6913465B0013449B001A46BB684E
:105F900013441B78FA7B9A4208D13A6913465B0096
:105FA00013449B001A46BB6813447B613B69013371
:105FB0003B613A697B689A4202D27B69002BE0D050
:105FC0007B6918461C37BD465DF8047B7047FFFFB0
:105FD00080B582B000AF78603960124B1B78002B1F
:105FE00002D06FF00B0318E000F0A2FB00F0ACFB56
:105FF00002460D4B1A6001F02DFF01F043FF0246EF
:10600000094B9A6002F0E6FC02F0EEFC0246064BF9
:106010005A60044B01221A70002318460837BD4607
:1060200080BD00BF3A3400204034002080B58CB0E1
:1060300002AF002387F82730002387F8263000239B
:10604000FB610023BB6100237B6100233B610023D4
:10605000FB6000233B620023BB6000237B60504B4E
:106060001B78002B02D16FF0080395E007F11400B4
:1060700007F1180207F11C0107F110030093034612
:10608000002002F01FFF034687F8273097F92730DA
:10609000002B09D097F9273013F1040F04D097F99A
:1060A000273013F1050F6BD1FB69002B05D07A69FE
:1060B0003B691A44BB699A4203D9F82387F8273011
:1060C00061E0FA697B6913443B6239693B1D07F162
:1060D0000802386AFFF7BCFDBB68002B03D1F4232C
:1060E00087F827304FE0BB68F869796907F10C023F
:1060F0009847034687F826307B68002B3DD0FB6825
:10610000002B3AD0002387F827303A69FB689A427F
:106110000BD2FB6807F1140207F1180107F11C000C
:10612000FFF7FEFC034687F827303B691A4600213B
:10613000386A0EF0C8FB97F92730002B1DD1FA6999
:106140007B6913443B627B68FA6897F92600396AD9
:106150009847F969B8697B69FA6801920093034628
:106160000A464FF6FF71012002F0B0FD034687F8A2
:10617000273097F92730002B04D197F927300BE00F
:1061800000BF00E000BFFB69002B03D0FB6918468D
:1061900003F064F997F9273018462837BD4680BDCB
:1061A0003A34002080B584B000AF03463960FB80EC
:1061B0000023FB730A4B1B78002B02D16FF00803FE
:1061C00009E0FB8800223968184602F051F80346BE
:1061D000FB7397F90F3018461037BD4680BD00BFDE
:1061E0003A34002080B400AF034B1B781846BD46FC
:1061F0005DF8047B704700BF3B34002080B500AFE2
:1062000002F00EFC02F0E0FA00F0BAFA10220021CF
:1062100004480EF058FB044B00221A700023184665
:1062200080BD00BF403400203A34002080B584B0E7
:1062300000AF7860786802F09FF80346FB7397F927
:106240000F3018461037BD4680BD80B584B000AF12
:106250000346FB800123FB73FA7BFB880021184671
:1062600002F006F80346BB7397F90E301846103754
:10627000BD4680BD80B584B000AF0346FB710123ED
:10628000FB6002F0D6FEB860FA79B968FB68B1FB32
:10629000F3F39A4234BF01230023DBB218461037D0
:1062A000BD4680BD80B584B000AF78600B46FB7002
:1062B00000F070FAF860054B1B781A46F9687868A8
:1062C0000EF0F6FA00BF1037BD4680BD58340020EE
:1062D00080B588B000AFF860B9607A600023FB77C2
:1062E000FA68BB681344BB61BB697B610023FB7424
:1062F00002F09CF90346FB74FB7C002B05D17B6804
:1063000002221A606FF00A031EE07B695B78002BA3
:1063100003D07B695B78012B01D1012300E00023CE
:10632000FB74FB7C002B05D17B6802221A606FF0A6
:10633000010309E00120FFF729FD0023FB777B68BB
:1063400008221A6097F91F3018462037BD4680BDD5
:1063500080B586B000AF0346B9607A60FB7397F9E9
:106360000F30002B22D1BB687B61082200217869A5
:106370000EF0A9FA7B69FF221A7005227B695A7018
:1063800000227B699A7002F054FE0346DAB27B6900
:10639000DA7002F047FE03469AB27B699A807B6905
:1063A00001229A717B690122DA7106E097F90F30B8
:1063B0007A68B9681846FFF74BFD00BF1837BD462D
:1063C00080BD80B586B000AFF860B9607A60012307
:1063D000FB7502F02BF90346FB75FB7D002B05D105
:1063E0007B6802221A606FF00A0306E00020FFF7C4
:1063F000CDFC7B6801221A60002318461837BD4681
:1064000080BD80B485B000AFF860B9607A607B6809
:1064100006221A60002318461437BD465DF8047B37
:10642000704780B586B000AF0346B9607A60FB73F1
:10643000BB687B610622002178690EF044FA7B6913
:10644000FF221A70FFF7B2FC03461A467B695A70A6
:10645000FFF7E6FC03461A467B699A70FFF7ECFCEF
:1064600003461A467B699A8000BF1837BD4680BD37
:1064700080B586B000AFF860B9607A600023FB7524
:1064800002F0BEF80346FB75FB7D002B03D002F043
:10649000F1FD02F0C4F87B6802221A606FF0040379
:1064A00018461837BD4680BD80B588B000AFF8608B
:1064B000B9607A600023FB77FA68BB681344BB615C
:1064C000BB697B610023FB747B695A687B69DB785D
:1064D0001946104600F06AF90346FB74FB7C002B5A
:1064E00005D17B6802221A606FF00B0304E07B6821
:1064F00001221A6097F91F3018462037BD4680BD2B
:1065000080B58AB000AFF860B9607A60002387F880
:106510002730FA68BB6813443B623B6AFB61002387
:10652000FB7600F037F97861FB695B781846FFF776
:10653000A1FE0346FB76FB7E002B05D17B68022281
:106540001A606FF0010313E07B69002B05D17B68B3
:1065500002221A606FF00B030AE0FB695A78064BBF
:106560001A70054B1B785A1C7B681A6097F9273004
:1065700018462837BD4680BD5834002080B588B005
:1065800000AF0346B9607A60FB7397F90F30002BB8
:1065900028D100F0FFF8F861BB68BB61012200213F
:1065A000B8690EF090F9BB69FF221A70FB69002BE5
:1065B0001FD0124B1B7801337A689A4219D1BB68FD
:1065C00001337B610023FB74FB7C19467869FFF77C
:1065D00069FE0A4B1B78184600F006F9074B0022AB
:1065E0001A7006E097F90F307A68B9681846FFF715
:1065F0002FFC00BF2037BD4680BD00BF58340020AF
:1066000080B588B000AFF860B9607A600023FB778E
:10661000FA68BB681344BB61BB697B610023FB74F0
:106620007B695B781846FFF725FE0346FB74FB7C0D
:10663000002B05D17B6802221A606FF001031DE078
:106640007B695A687B69DB781946104600F0AEF822
:106650000346FB74FB7C002B05D17B6802221A6089
:106660006FF00B030AE07B695A78064B1A70054BF2
:106670001B785A1C7B681A6097F91F301846203720
:10668000BD4680BD5834002080B588B000AF0346B9
:10669000B9607A60FB7397F90F30002B28D100F0B6
:1066A00079F8F861BB68BB6101220021B8690EF07E
:1066B0000AF9BB69FF221A70FB69002B1FD0124B2D
:1066C0001B7801337A689A4219D1BB6801337B6128
:1066D0000023FB74FB7C19467869FFF7E3FD0A4B46
:1066E0001B78184600F080F8074B00221A7006E06D
:1066F00097F90F307A68B9681846FFF7A9FB00BF11
:106700002037BD4680BD00BF5834002080B582B020
:1067100000AF0346FB71FB79072204491846FFF7D7
:106720001FFC034618460837BD4680BD405C01008B
:1067300080B500AF034800F013F800F069F800BF1F
:1067400080BD00BF0D67000080B400AF034B1B6825
:106750001846BD465DF8047B704700BF5C340020DE
:1067600080B483B000AF7860044A7B68136000BFD8
:106770000C37BD465DF8047B704700BF5C340020D9
:1067800080B500AF00F04BF80020FFF7E9FF00BF35
:1067900080BDFFFF80B400AF034B1B681846BD46A9
:1067A0005DF8047B704700BF5034002080B483B094
:1067B00000AF78600B46FB70FB78002B04D17B6840
:1067C000002B01D1002306E0064A7B681360054ACE
:1067D000FB781371012318460C37BD465DF8047B26
:1067E000704700BF5034002080B483B000AF034630
:1067F000FB71064B1A68FB791344044A136000BF0F
:106800000C37BD465DF8047B704700BF5034002054
:1068100080B400AF00BFBD465DF8047B704780B414
:1068200000AF00BFBD465DF8047B704780B485B003
:1068300000AF0346FB800023FB7372B6094B1B6855
:10684000002B0CBF01230023DBB2FB73FB7B002B6F
:1068500000D162B6FB7B18461437BD465DF8047B59
:10686000704700BF6834002080B483B000AF034697
:10687000FB8062B600BF0C37BD465DF8047B7047F5
:1068800080B483B000AF0346FB8072B6054B1B6833
:106890000133044A136062B600BF0C37BD465DF891
:1068A000047B70476834002080B483B000AF034697
:1068B000FB8072B6054B1B68013B044A136062B64D
:1068C00000BF0C37BD465DF8047B7047683400207C
:1068D00080B483B000AF0346FB80104B1968FA8880
:1068E00013465B001344DB000B445B79022B0AD098
:1068F0000A4B1968FA8813465B001344DB000B440B
:106900005B79032B01D1012300E00023DBB21846A1
:106910000C37BD465DF8047B704700BF6034002033
:1069200080B582B000AF0023FB710023BB80002341
:10693000BB8008E0BB881846FFF7CAFF0346FB711F
:10694000BB880133BB80094B9B88BA889A4202D22C
:10695000FB79002BEED0FB79002B0CBF0123002329
:10696000DBB218460837BD4680BD00BF603400204A
:1069700080B485B000AF0346FB800B467B711346A5
:106980003B71284B1B68002B42D0264B9B88FA8812
:106990009A423DD2234B1968FA8813465B00134490
:1069A000DB000B441B68002B32D01E4B1968FA88A1
:1069B00013465B001344DB000B441B797A799A423F
:1069C00026D2184B1968FA8813465B001344DB0083
:1069D0000B4419687A791346DB009B1A9B000B4421
:1069E0001B68002B14D00F4B1968FA8813465B0004
:1069F0001344DB000B4419687A791346DB009B1AB9
:106A00009B000B441B793A799A4201D2012300E0A2
:106A10000023FB73FB7B18461437BD465DF8047BEF
:106A2000704700BF6034002080B485B000AF0346DB
:106A30003A60FB710B46BB710023FB73BB79BB81D2
:106A4000FB79FF2B04D1BB89FF2B01D80123FB73FA
:106A5000FB7B18461437BD465DF8047B704780B455
:106A600083B000AF0346FB71FB7923F01003002BCA
:106A70000CBF01230023DBB218460C37BD465DF87E
:106A8000047B704780B485B000AF0346FB710023E0
:106A9000FB73FB79002B05D0FB79012B02D0FB792E
:106AA000022B01D10123FB73FB7B18461437BD4633
:106AB0005DF8047B704780B485B000AF0346FB717E
:106AC0000023FB73FB79002B05D0FB79012B02D04F
:106AD000FB79022B01D10123FB73FB7B1846143792
:106AE000BD465DF8047B704780B400AF01231846B3
:106AF000BD465DF8047B704780B485B000AF0346A7
:106B0000FB80164B1968FA8813465B001344DB00C0
:106B10000B441B7B022B0ED1104B1968FA881346CD
:106B20005B001344DB000B44DA880D4B1B889A4250
:106B300001D0012300E00023FB73FB7B002B04D07A
:106B4000FB88002B01D1012300E00023FB73FB7BBA
:106B500018461437BD465DF8047B7047603400204A
:106B60003032002080B485B000AF78600B46FB70F7
:106B70007B681968FA781346DB009B1A9B000B446C
:106B8000BB60BB689B687A68D28902FB03F3013360
:106B9000FB60FB78002B08D17B681B7A03F01003A5
:106BA000002B02D0FB680433FB60FB6818461437E7
:106BB000BD465DF8047B704780B586B000AF786055
:106BC0000023BB7400237B610023FB740023FB7450
:106BD00015E0FB7C19467868FFF7C4FFF8600023D6
:106BE000BB600121F86802F0EBF9B860BA687B6914
:106BF0009A4201D9BB687B61FB7C0133FB747B68E3
:106C00001B79FA7C9A42E4D37B681B791A461346B7
:106C10005B0099187B6814331A46786902F0B0FC5F
:106C20000346BB7497F91230002B03D07B684FF0FA
:106C3000FF325A6197F9123018461837BD4680BDA9
:106C400080B582B000AF78607B685B69B3F1FF3FCD
:106C500004D07B685B69184602F094FD7B684FF0B6
:106C6000FF325A6100BF0837BD4680BD80B58AB08B
:106C700000AFF860B9607A60002387F82730FA68BF
:106C8000BB6813443B623B6AFB61FB699A78DB7823
:106C90001B0213437B83FB691B797B76FB695B7962
:106CA0003B760023FB753A7E797E7B8B1846FFF797
:106CB0005FFE0346FB75FB7D002B05D17B6802223E
:106CC0001A606FF0010321E07B8B1846FFF700FE8E
:106CD0000346002B0CBF01230023DBB2FB75FB7DB9
:106CE000002B05D17B6802221A606FF007030DE0CC
:106CF000084A7B8B1380074A7B7E9370054A3B7E54
:106D0000D3707B6801221A6097F92730184628371C
:106D1000BD4680BD2C32002080B58AB000AFF8603F
:106D2000B9607A60002387F82730FA68BB6813449B
:106D30003B623B6AFB613C4B1B887B833A4B9B78F5
:106D40007B76394BDB783B7600237B610023FB7439
:106D50003A7E797E7B8B1846FFF70AFE0346FB746A
:106D6000FB7C002B05D17B6802221A606FF00503C3
:106D700056E07B8B1846FFF7ABFD0346002B0CBF9C
:106D800001230023DBB2FB74FB7C002B05D17B6865
:106D900002221A606FF0070342E0FB695878FB6932
:106DA0009978FB695B681A46FFF73EFE0346FB7461
:106DB000FB7C002B05D17B6802221A606FF0010377
:106DC0002EE01A4B19687A8B13465B001344DB00E4
:106DD0000B4419687A7E1346DB009B1A9B000B4418
:106DE0001A683B7EDB0013447B61FB695A787B6940
:106DF0001A70FB699A787B695A70FB69DA787B694B
:106E00009A70FB695A687B695A60074BDB780133DB
:106E1000DAB2054BDA707B6801221A6097F92730E5
:106E200018462837BD4680BD2C3200206034002033
:106E300080B58AB000AFF860B9607A60002387F847
:106E40002730FA68BB6813443B623B6AFB6100234E
:106E5000BB610023FB75474B1B68002B08D0FB6907
:106E60005B889AB2434B9B889A4201D2012300E08F
:106E70000023FB75FB7D002B05D17B6802221A6085
:106E80006FF0010371E03B4B1A68FB695B889BB2B2
:106E900019460B465B000B44DB001344BB61FB69E6
:106EA0005B889BB21846FFF713FD0346002B0CBF0F
:106EB00001230023DBB2FB75FB7D002B05D17B6832
:106EC00002221A606FF007034FE0FB699B889BB2B8
:106ED0007F2B94BF01230023DBB2FB75FB7D002BCE
:106EE00005D17B6802221A606FF001033DE0FB6967
:106EF000DB79002B0CBF01230023DBB2FB75FB7D8C
:106F0000002B05D17B6802221A606FF001032CE090
:106F1000FB695B781846FFF7A2FD0346FB75FB7D16
:106F2000002B05D17B6802221A606FF009031CE078
:106F3000FB695A78BB691A72FB699B889AB2BB6974
:106F4000DA80FB699A79BB695A72FB69DA79BB69A5
:106F50009A72BB695B7A012B02D8BB6901225A7213
:106F60007B6801221A6097F9273018462837BD46FA
:106F700080BD00BF6034002090B58FB000AFF860D6
:106F8000B9607A60002387F82630FA68BB6813443A
:106F90003B623B6AFB610023BB61FB695B889BB280
:106FA0007B61002387F837300023FB74A94B1B68F3
:106FB000002B07D0A74B9B881A467B69934201DAC6
:106FC000012300E0002387F8373097F83730002B93
:106FD00005D17B6802221A606FF0010382E19E4AAC
:106FE0007B6913609B4B19687A6913465B001344F5
:106FF000DB000B44BB61FB695B781846FFF742FD81
:10700000034687F8373097F83730002B05D17B6877
:1070100002221A606FF0090364E1FFF765FD034681
:10702000002B56D0BB695B79002B52D1BB691B7A10
:1070300003F00203002B21D0BB691B68002B09D091
:10704000844BDB791A46BB691B791344802B01DC26
:10705000012300E0002387F8373097F83730002B02
:107060002DD07C4BDA79BB69DA727A4BDA79BB695D
:107070001B791344DAB2774BDA7120E0BB691B68E5
:10708000002B09D0734B9B791A46BB691B791344BB
:10709000FC2B01DC012300E0002387F8373097F850
:1070A0003730002B0BD06B4B9A79BB69DA72694B86
:1070B0009A79BB691B791344DAB2664B9A7197F8D7
:1070C0003730002B05D17B6802221A606FF008036D
:1070D00008E1FB695B78012B03D0FB695B78022B2D
:1070E0007CD100233B63012387F8373000233B63C7
:1070F0006AE00023FB620023BB620023FB6213E013
:10710000BB6919683A6B1346DB009B1A9B000B4462
:107110001A68FB6ADB0013445B781A46BB6A1344A7
:10712000BB62FB6A0133FB62BB6919683A6B1346A9
:10713000DB009B1A9B000B441B791A46FB6A9342A7
:10714000DEDB3B6B002B17D1BB691B7A03F010030E
:10715000002B11D0BB69DB891A46BB6A03FB02F323
:107160005C1D01F05FFF03469C4294BF0123002396
:10717000DBB287F8373010E0BB69DB891A46BB6A9F
:1071800003FB02F35C1C01F04DFF03469C4294BFDD
:1071900001230023DBB287F8373097F83730002B14
:1071A00005D17B6802221A606FF008039AE0BB6980
:1071B00019683A6B1346DB009B1A9B000B44BA6AB2
:1071C0009A603B6B01333B63BB691B791A463B6B8F
:1071D000934203DA97F83730002B8AD1BB69DB88FA
:1071E0001846FFF723FB0346FB74FB7C002B6ED095
:1071F000002387F82730FB695B78012B12D0022B24
:107200004CD0002B51D1BB6901225A71FFF788FB8A
:107210000346002B46D00120FEF7B8FD4020FEF7C4
:10722000E5FD3FE0BB695B69B3F1FF3F28D1BB6976
:10723000DA880A4B1B889A4212D1084B5868074BD0
:107240009968BB6914331A4602F03AFB034687F883
:10725000273015E060340020283200203032002032
:107260007B69002B0CDCBB69DB88002B08D1B8697B
:10727000FFF7A2FC034687F82730BB6900221A8279
:1072800097F92730002B0FD1BB6903225A710220D6
:10729000FEF77CFD4020FEF795FD05E0BB6902226C
:1072A0005A7102E000BF00E000BFBB69DB881846EE
:1072B000FFF7DAFA7B6802221A6097F92730002B71
:1072C00005D07B6802221A606FF002030AE0FB7CA3
:1072D000002B05D17B6802221A606FF00A0301E0DF
:1072E00097F9263018463C37BD4690BD80B586B02C
:1072F00000AF0346B9607A60FB7397F90F30002B3B
:1073000012D1BB687B617B69FF221A700C4B1A6833
:107310000C4B1B6819460B465B000B44DB00134407
:10732000DA7A7B695A7006E097F90F307A68B968A3
:107330001846FEF78DFD00BF1837BD4680BD00BF63
:10734000603400202832002090B58BB000AFF86088
:10735000B9607A60002387F82230FA68BB6813446A
:10736000FB61FB69BB610023FB750023BB75002338
:107370007B62BB695B781846FFF79DFB0346FB7594
:10738000FB7D002B05D17B6802221A606FF0090398
:107390003AE19F4B1B68002B05D09D4B9B88002B2F
:1073A00001D0012300E00023FB75FB7D002B05D1FC
:1073B0007B6802221A606FF0010325E101F020F9D9
:1073C0000346BB75BB7D002B00F01381002387F8BB
:1073D00023300023BB82BB695B78012B2DD0022BAD
:1073E00000F0C880002B40F0F58000237B6217E09E
:1073F000874B19687A6A13465B001344DB000B4421
:107400005B79002B09D0824B19687A6A13465B00BE
:107410001344DB000B4401225A717B6A01337B6207
:107420007B4B9B881A467B6A9342E1DB0120FEF787
:10743000ADFC4020FEF7DAFCCCE000237B6263E089
:10744000734B19687A6A13465B001344DB000B44E4
:107450005B79022B55D16E4B19687A6A13465B0033
:107460001344DB000B445B69B3F1FF3F49D1684B28
:1074700019687A6A13465B001344DB000B44DA8810
:10748000644B1B889A4214D1624B5868614B9C68CC
:107490005F4B19687A6A13465B001344DB000B44A8
:1074A00014331A46214602F00BFA034687F82330BC
:1074B00027E07B6A002B24DC554B19687A6A134657
:1074C0005B001344DB000B44DB88002B19D1504BCD
:1074D00019687A6A13465B001344DB000B441846B4
:1074E000FFF76AFB034687F82330494B19687A6A2D
:1074F00013465B001344DB000B4400221A827B6AB4
:10750000BB827B6A01337B62414B9B881A467B6A54
:10751000934203DA97F92330002B91D097F9233067
:10752000002B54D100237B621DE0394B19687A6A25
:1075300013465B001344DB000B445B79022B0FD135
:10754000334B19687A6A13465B001344DB000B4423
:1075500003225A710220FEF719FC4020FEF732FC8C
:107560007B6A01337B622A4B9B881A467B6A934273
:10757000DBDB2CE000237B6217E0254B19687A6A7D
:1075800013465B001344DB000B445B79022B09D1EB
:107590001F4B19687A6A13465B001344DB000B44E7
:1075A00001225A717B6A01337B62194B9B881A4610
:1075B0007B6A9342E1DBFFF7B3F90346002B08D067
:1075C0000120FEF7E3FB4020FEF710FC01E000BFC6
:1075D00000E000BF01F023F897F92330002B05D01D
:1075E0007B6802221A606FF002030DE07B680122C3
:1075F0001A60BB7D002B05D17B6802221A606FF0F8
:107600000A0301E097F9223018462C37BD4690BD99
:10761000603400203032002080B485B000AFF860C4
:10762000B9607A607B6808221A6000231846143714
:10763000BD465DF8047B704780B586B000AF034659
:10764000B9607A60FB73BB687B61082200217869AE
:107650000DF039F97B69FF221A707B6911225A708B
:107660007B694FF0FF329A704FF0FF32DA707B691E
:10767000002262F07F021A7100225A717B69002297
:107680009A717B690022DA7100BF1837BD4680BD50
:1076900080B485B000AFF860B9607A607B6808227A
:1076A0001A60002318461437BD465DF8047B704706
:1076B00080B586B000AF0346B9607A60FB73BB68E3
:1076C0007B610822002178690DF0FDF87B69FF22BB
:1076D0001A707B6901225A707B69FF229A707B695C
:1076E0000122DA707B69FF221A717B6934225A7198
:1076F0007B69002242F001029A710022DA7100BF18
:107700001837BD4680BD80B586B000AFF860B9605F
:107710007A600023FB750023BB7500F087FF0346EA
:10772000BB75BB7D002B05D17B6802221A606FF010
:107730000A0307E00120FEF729FB7B6801221A609B
:1077400097F9173018461837BD4680BD80B58CB004
:1077500000AFF860B9607A60002387F82B30FA68D0
:10776000BB6813447B627B6A3B623B6A5B889BB26B
:10777000FB610023BB610023FB750023FB62474BC9
:107780001B68002B0CBF01230023DBB2FB75FB7DC4
:10779000002B05D17B6802221A606FF0030378E0AA
:1077A000FB69002B05DDFB69B3F5803F01DA01239E
:1077B00000E00023FB75FB7D002B05D17B680222D6
:1077C0001A606FF0010364E0FA6913465B0013442A
:1077D000DB00184601F0DAFDB861BB69002B05D16A
:1077E0007B6802221A606FF0020352E0FA691346C6
:1077F0005B001344DB001A460021B8690DF063F802
:10780000264ABB691360FB699AB2244B9A80002315
:10781000FB6235E0FA6A13465B001344DB001A464C
:10782000BB6913444FF0FF325A61FA6A13465B009A
:107830001344DB001A46BB69134400221A73FA6A28
:1078400013465B001344DB001A46BB691344012254
:107850005A73FA6A13465B001344DB001A46BB698D
:1078600013440122DA81FA6A13465B001344DB00F9
:107870001A46BB69134400221A82FB6A0133FB6279
:10788000FA6AFB699A42C5DB7B6801221A6097F9A4
:107890002B3018463037BD4680BD00BF6034002015
:1078A00090B589B000AFF860B9607A600023FB77CB
:1078B000FA68BB681344BB61BB697B617B699A78DA
:1078C000DB781B0213437B827B691B797B7400236B
:1078D0003B744B4B1B68002B14BF01230023DBB20E
:1078E0003B743B7C002B05D17B6802221A606FF051
:1078F000030380E0424B9B887A8A9A4234BF01237B
:107900000023DBB23B743B7C002B05D17B68022259
:107910001A606FF001036EE07B7C002B04D07B7C4F
:10792000FC2B01D8012300E000233B743B7C002B9F
:1079300005D17B6802221A606FF001035BE0304BD7
:1079400019687A8A13465B001344DB000B441B68FA
:10795000002B0CBF01230023DBB23B743B7C002BCC
:1079600005D17B6802221A606FF0030343E07A7C42
:107970001346DB009B1A9B001846214B19687A8A34
:1079800013465B001344DB00CC1801F0FFFC0346F8
:1079900023601B4B19687A8A13465B001344DB0093
:1079A0000B441B68002B05D17B6802221A606FF024
:1079B000020320E0124B19687A8A13465B001344D5
:1079C000DB000B4418687A7C1346DB009B1A9B0093
:1079D0001A4600210CF077FF094B19687A8A134682
:1079E0005B001344DB000B447A7C1A717B68012234
:1079F0001A6097F91F3018462437BD4690BD00BF66
:107A00006034002090B58BB000AFF860B9607A6048
:107A1000002387F82730FA68BB6813443B623B6A4F
:107A2000FB61FB699A78DB781B0213437B83FB695C
:107A30001B797B76FB695B793B760023FB75704B8A
:107A40001B68002B14BF01230023DBB2FB75FB7DF9
:107A5000002B05D17B6802221A606FF00303CAE095
:107A6000674B9B887A8B9A4234BF01230023DBB299
:107A7000FB75FB7D002B05D17B6802221A606FF03D
:107A80000103B8E05E4B19687A8B13465B00134420
:107A9000DB000B441B68002B14BF01230023DBB267
:107AA000FB75FB7D002B05D17B6802221A606FF00D
:107AB0000303A0E0524B19687A8B13465B00134412
:107AC000DB000B441B797A7E9A4234BF01230023EA
:107AD000DBB2FB75FB7D002B05D17B6802221A60AF
:107AE0006FF0010387E0464B19687A8B13465B0001
:107AF0001344DB000B4419687A7E1346DB009B1AA3
:107B00009B000B441B68002B0CBF01230023DBB23E
:107B1000FB75FB7D002B05D17B6802221A606FF09C
:107B2000030368E03B7E002B14BF01230023DBB27C
:107B3000FB75FB7D002B05D17B6802221A606FF07C
:107B4000010358E03B7ED8002D4B19687A8B134611
:107B50005B001344DB000B4419687A7E1346DB009C
:107B60009B1A9B00CC1801F011FC03462360244BA8
:107B700019687A8B13465B001344DB000B441968C9
:107B80007A7E1346DB009B1A9B000B441B68002B7C
:107B900005D17B6802221A606FF002032BE0184BBC
:107BA00019687A8B13465B001344DB000B44196899
:107BB0007A7E1346DB009B1A9B000B4418683B7EC1
:107BC000DB001A4600210CF07EFE0D4B19687A8B03
:107BD00013465B001344DB000B4419687A7E13469E
:107BE000DB009B1A9B000B443A7E1A717B680122D2
:107BF0001A6097F9273018462C37BD4690BD00BF54
:107C00006034002080B485B000AFF860B9607A605D
:107C10007B6802221A606FF00F0318461437BD46C6
:107C20005DF8047B7047FFFF80B58AB000AFF86055
:107C3000B9607A60002387F82730FA68BB6813447C
:107C40003B623B6AFB61FB699A78DB781B0213435A
:107C50007B83FB691B797B76FB695B793B76FB69F0
:107C60009A79DB791B021343FB8201237B755A4B04
:107C70001B68002B14BF01230023DBB27B757B7DC7
:107C8000002B05D17B6802221A606FF003039EE08F
:107C9000514B9B887A8B9A4234BF01230023DBB27D
:107CA0007B757B7D002B05D17B6802221A606FF00B
:107CB00001038CE07B8B002B0CBF01230023DBB284
:107CC0007B757B7D002B05D17B6802221A606FF0EB
:107CD00009037CE07B7E002B02D07B7E022B01D14E
:107CE000012300E000237B757B7D002B05D17B68A1
:107CF00002221A606FF0090369E03B7E012B0CBF82
:107D000001230023DBB27B757B7D002B05D17B68D3
:107D100002221A606FF0090359E07B7E002B02D12A
:107D2000FB8A012B05D07B7E002B04D0FB8A012B24
:107D300001D9012300E000237B757B7D002B05D159
:107D40007B6802221A606FF0090340E07B8B1846C3
:107D5000FEF7BEFD0346002B0CBF01230023DBB260
:107D60007B757B7D002B05D17B6802221A606FF04A
:107D700007032CE0184B19687A8B13465B001344F9
:107D8000DB000B447A7E1A73134B19687A8B134607
:107D90005B001344DB000B443A7E5A730E4B1968A8
:107DA0007A8B13465B001344DB000B44FA8ADA81BA
:107DB000094B19687A8B13465B001344DB000B44B4
:107DC00000221A827B6801221A6097F92730184630
:107DD0002837BD4680BD00BF6034002080B588B024
:107DE00000AFF860B9607A600023FB77FA68BB687F
:107DF0001344BB61BB695B78012B0CBF01230023DB
:107E0000DBB2FB75FB7D002B05D17B6802221A607B
:107E10004FF0FF3308E07A68B968F868FFF704FFAD
:107E20000346FB7797F91F3018462037BD4680BDC3
:107E300080B582B000AF0346FB71FB790D22044987
:107E40001846FEF78DF8034618460837BD4680BD34
:107E5000945C010080B500AF074B00221A60082235
:107E6000002106480CF02FFD054800F017F800F03F
:107E7000B6FC00BF80BD00BF683400206034002025
:107E8000317E000080B400AF034B1B681846BD462E
:107E90005DF8047B704700BF6C34002080B483B071
:107EA00000AF7860044A7B68136000BF0C37BD46A2
:107EB0005DF8047B704700BF6C34002080B584B04F
:107EC00000AF0346FB800023FB600023BB60214B17
:107ED0001B68002B04D01F4B9B88FA889A4202D360
:107EE0004FF0FF3331E01B4B1968FA8813465B00F3
:107EF0001344DB000B44BB60FB881846FEF7FCFD17
:107F00000346002B03D0BB681B8A002B01D1002342
:107F10001BE00023FB600EE0BB681968FA6813469B
:107F2000DB009B1A9B000B44DB68184601F096FAB5
:107F3000FB680133FB60BB681B791A46FB68934200
:107F4000EADBBB6800221A82002318461037BD46C0
:107F500080BD00BF6034002080B586B000AFF860FF
:107F60000B467A60FB72FB681968FA7A1346DB00ED
:107F70009B1A9B000B443B613B695B697B613B69DE
:107F800000229A61FB68DA7AFB7A1344DAB27B69E1
:107F90001A707B6901337B61FB7A002B14D1FB687B
:107FA0001B7A03F01003002B0ED03B1D0422194650
:107FB00078690CF07DFC3B699B6904337A69134452
:107FC0007B613B6900229A613B697A695A6100BF13
:107FD0001837BD4680BD80B588B000AF78600023FB
:107FE000FB777B685B69BB610023FB7735E07B68CF
:107FF0001A68FB7FDB0013447B617B695B683B6134
:108000007B691B78FF2B12D03B69FB60FB681B6808
:108010007A691278114601228A401340002B14BF5E
:1080200001230023DBB21A46BB691A7006E07B69A4
:108030005B781A463969B8690CF03AFC7B695B7861
:108040001A467B689B691344BA691344BB617B6819
:1080500000229A61FB7F0133FB777B681B79FA7FF3
:108060009A42C4D37B68BA695A6100BF2037BD46C3
:1080700080BDFFFF80B58EB002AF0346B9607A6065
:10808000FB81002387F82F30002387F82E30002350
:10809000BB62002387F82D30002387F827300023A8
:1080A00087F82630704B1B68002B04D06E4B9B88E2
:1080B000FA899A4202D34FF0FF33D1E06A4B196834
:1080C000FA8913465B001344DB000B44BB62FB8957
:1080D0001846FEF711FD034687F8273097F827303A
:1080E000002B06D0BB6A1B8A0133BA6AD28993423D
:1080F00001D1012300E0002387F82630002387F810
:108100002D3093E0BB6A196897F82D201346DB00E9
:108110009B1A9B000B443B6200F042FFF861002376
:10812000BB6197F82730002B03D0BB6A1B8A002B5A
:1081300001D1012300E00023FB75FB7D002B3CD027
:1081400097F82D301946B86AFEF70CFD02463B6AD7
:108150001A613B6A1B690121184600F031FFB861C2
:10816000BB6A5B69B3F1FF3F09D0BB6A5B69B96960
:10817000184601F01DFC02463B6ADA6005E0B8696A
:1081800001F004F902463B6ADA603B6ADB68002BC7
:108190000DD03B6ADA68FB691A443B6A5A6197F86A
:1081A0002D30BA681946B86AFFF7D6FE05E00123FC
:1081B00087F82E30F62387F82F3097F82E30002BD3
:1081C0002FD13B6ADB68002B2BD0BB6ADA88274BA8
:1081D0001B889A4202D0386AFFF7FDFE97F82630D6
:1081E000002B1ED03B6A1B690121184600F0E8FEF7
:1081F000B8613B6ADA683B6A1B69F9890193FB69DC
:108200000093BB69786800F061FD034687F82F3062
:1082100097F92F30002B04D03B6ADB68184601F039
:108220001DF997F82D30013387F82D30BB6A1B7983
:1082300097F82D209A4204D297F82E30002B3FF465
:1082400061AFBB6A1B8A0133BA6AD28993FBF2F130
:1082500002FB01F29B1A9AB2BB6A1A8297F92F307D
:1082600018463037BD4680BD6034002030320020D3
:1082700080B586B000AF03463960FB8013467B7142
:108280000023FB75FB881846FEF7FAFA394B1B688A
:10829000002B64D0374B9B88002B60D00023BB821F
:1082A000344B1B683B610023BB824FE0BA8A134604
:1082B0005B001344DB001A463B6913441B7A03F04E
:1082C0000203002B3FD1BA8A13465B001344DB0044
:1082D0001A463B6913445B79032B34D1BA8A13469F
:1082E0005B001344DB001A463B691344DB88FA88C1
:1082F0009A4228D1BB8A1946002000F0CDFC0346E3
:10830000FB73FB7B002B01D0002301E04FF0FF3318
:10831000BB607B79002B06D0BB8A1846FFF7CEFDE9
:108320000346FB7507E0BB8ABA6839681846FFF751
:10833000A1FE0346FB75FB7B002B04D0BB8A1946CC
:10834000002000F0B6FCBB8A0133BB82094B9B883E
:10835000BA8A9A4203D297F91730002BA6D0FB882D
:108360001846FEF7A1FA97F9173018461837BD4698
:1083700080BD00BF6034002080B58EB002AF786051
:10838000002387F82F309D4B1B68002B00F02F81B6
:1083900000F036F9034687F8293097F82930002B8A
:1083A00000F02281954B1B687B62944B9B883B625B
:1083B0000023BB850023BB850EE1BB8D1846FEF76D
:1083C0009BFB0346FB77FB7F002B00F00281BA8DFD
:1083D00013465B001344DB001A467B6A13445B7947
:1083E000032B40F0F680BA8D13465B001344DB008C
:1083F0001A467B6A13441B8A002B00F0EA80BB8D6F
:108400001946002000F048FC0346BB77BB7F002BD9
:1084100001D0002301E04FF0FF33BB6100237B85D7
:1084200000237B85BDE0BA8D13465B001344DB005F
:108430001A467B6A134419687A8D1346DB009B1A2F
:108440009B000B44DB68002B00F0A880BA8D13461C
:108450005B001344DB001A467B6A134419687A8D6B
:108460001346DB009B1A9B000B441B690121184635
:1084700000F0A6FD786100F093FD3861BA8D1346D7
:108480005B001344DB001A467B6A134419687A8D3B
:108490001346DB009B1A9B000B44DA683B691344CC
:1084A000FB60BA8D13465B001344DB001A467B6AFF
:1084B000134419687A8D1346DB009B1A9B000B440A
:1084C0001969BA8D13465B001344DB001A467B6AB8
:1084D000134418687A8D1346DB009B1A9B000344F3
:1084E0005B691A46FB68D31ACB1ABB60BA8D134678
:1084F0005B001344DB001A467B6A134419687A8DCB
:108500001346DB009B1A9B000B445B69BA68002191
:1085100018460CF0D8F9BA8D13465B001344DB0003
:108520001A467B6A134419687A8D1346DB009B1A3E
:108530009B000B44D868BA8D13465B001344DB00E4
:108540001A467B6A134419687A8D1346DB009B1A1E
:108550009B000B441B69B98D01933B6900937B69B8
:108560000246B86900F0B2FB034687F82F3097F94E
:108570002F30002B12D0BA8D13465B001344DB0062
:108580001A467B6A134419687A8D1346DB009B1ADE
:108590009B000B44DB68184600F060FF7B8D0133C5
:1085A0007B85BA8D13465B001344DB001A467B6A59
:1085B00013441B799BB27A8D9A42FFF434AFBA8D83
:1085C00013465B001344DB001A467B6A1344002207
:1085D0001A82BB8D0133BB85BB8D3A6A9A423FF745
:1085E000ECAE00F01CF802E0FA2387F82F3097F980
:1085F0002F3018463037BD4680BD00BF60340020A4
:1086000080B582B000AF0123FB710020FEF70EF9A8
:108610000346FB71FB7918460837BD4680BD80B51F
:1086200000AF0020FEF720F900BF80BD80B586B006
:1086300000AF0123FB75614B1B68002B00F0B98074
:108640005E4B1B68BB605D4B9B887B60FFF7D8FF70
:108650000346FB75FB7D002B00F0AB8000233B61E4
:108660000023FB60554B00221A60544B00229A8075
:10867000524B00229A71514B0022DA71504B4FF04D
:10868000FF321A60FFF7CBFF00F0DAFC00233B61FA
:1086900084E03A6913465B001344DB001A46BB686A
:1086A0001344DA88474B1B889A420CD13A69134627
:1086B0005B001344DB001A46BB6813445B69184631
:1086C00001F050F918E03B69002B15DC3A691346BC
:1086D0005B001344DB001A46BB681344DB88002BA5
:1086E0000AD13A6913465B001344DB001A46BB68A3
:1086F00013441846FEF7A4FA3A6913465B00134484
:10870000DB001A46BB6813441B68002B43D00023D0
:10871000FB6027E03A6913465B001344DB001A460E
:10872000BB6813441968FA681346DB009B1A9B0068
:108730000B441B68002B12D03A6913465B001344AC
:10874000DB001A46BB6813441968FA681346DB005D
:108750009B1A9B000B441B68184600F07FFEFB68C9
:108760000133FB603A6913465B001344DB001A4691
:10877000BB6813441B791A46FB689342CADB3A690B
:1087800013465B001344DB001A46BB6813441B68A6
:10879000184600F063FE3B6901333B613A697B6830
:1087A0009A42FFF676AFB86800F058FE4020FDF719
:1087B0001DFBFB7D18461837BD4680BD6034002088
:1087C000283200203032002080B500AFFFF72EFFA6
:1087D00000F00CF80020FFF761FB00BF80BD80B403
:1087E00000AF00BFBD465DF8047B704780B400AFAA
:1087F00000BFBD465DF8047B704780B584B000AF14
:108800000346FB710123FB6000F013FCB860FA79AA
:10881000BB68A3F10801FB68B1FBF3F39A4294BF74
:1088200001230023DBB218461037BD4680BD80B55A
:1088300084B000AF0346FB710123FB6000F0F9FB3D
:10884000B860FB79002B09D0FA79BB68991EFB68E8
:10885000B1FBF3F39A4201D8012300E00023DBB21D
:1088600018461037BD4680BD80B584B000AF786033
:108870000B46FB70FDF78EFFF860FB781A467968AF
:10888000F8680CF015F800BF1037BD4680BD80B504
:108890008AB000AFF860B9607A60002387F82730AB
:1088A000FA68BB6813443B623B6AFB610023FB76BA
:1088B000FDF770FF7861FB695B781846FFF7B7FF3B
:1088C0000346FB76FB7E002B05D17B6802221A60F3
:1088D0006FF001031DE07B69002B02D07B69002B48
:1088E00005D17B6802221A606FF00B0311E03B6A2E
:1088F0009A1CFB695B7819461046FFF7B5FFFB69C8
:108900005B781846FDF770FF7B6801221A6097F9C3
:10891000273018462837BD4680BD80B588B000AFE7
:10892000F860B9607A600023FB77FA68BB6813448B
:10893000BB61BB697B610023FB747B695B78184674
:10894000FFF75BFF0346FB74FB7C002B05D17B68C4
:1089500002221A606FF0010325E07B695A687B6987
:10896000DB7819461046FDF721FF0346FB74FB7CBC
:10897000002B05D17B6802221A606FF00B0312E016
:10898000BB6903F108027B695B7819461046FFF763
:108990006BFF7B695B781846FDF726FF7B68012239
:1089A0001A6097F91F3018462037BD4680BDFFFF7B
:1089B00080B582B000AF0346FB71FB790222044907
:1089C0001846FDF7CDFA034618460837BD4680BD68
:1089D000305D010080B500AF024800F011F800BF23
:1089E00080BD00BFB189000080B400AF034B1B689D
:1089F0001846BD465DF8047B704700BF7034002008
:108A000080B483B000AF7860044A7B68136000BF15
:108A10000C37BD465DF8047B704700BF7034002002
:108A200080B400AF00BFBD465DF8047B704780B4E2
:108A300083B000AF78607B6800221A607A687B6838
:108A40005A6000BF0C37BD465DF8047B704780B4A8
:108A500083B000AF786039603B6800221A607B68A1
:108A60005B683A681A603A687B685A6000BF0C37E6
:108A7000BD465DF8047B704780B483B000AF78607A
:108A800039607B681A683B681A607B681B68002B3A
:108A90000BD07B681B681A687B681A607B681B6850
:108AA000002B02D17A687B685A6000BF0C37BD4644
:108AB0005DF8047B704780B483B000AF78603960A4
:108AC0007B681A683B681A607B681B68002B02D1C0
:108AD0003A687B685A607B683A681A6000BF0C3756
:108AE000BD465DF8047B704780B582B000AF78600A
:108AF0007868FFF79CFF00BF0837BD4680BDFFFFC9
:108B000080B582B000AF00233B600023FB8072B6CB
:108B10000023FB8015E0FB88DB000E4A13443A4635
:108B200011461846FFF7A8FF3B68002B03D03B68AF
:108B3000184600F093FC3B68002BECD1FB88013316
:108B4000FB80FB88012BE6D962B600BF0837BD4623
:108B500080BD00BF7434002080B582B000AF002318
:108B60003B6000237B6072B600237B6015E07B686E
:108B7000DB000E4A13443A4611461846FFF77CFFC5
:108B80003B68002B03D03B68184600F067FC3B684D
:108B9000002BECD17B6801337B607B68002BE6DD2A
:108BA00062B600BF0837BD4680BD00BF84340020D8
:108BB00080B586B000AF7860396000237B750023F4
:108BC000FB82314B1B78002B02D06FF00B0357E078
:108BD0000023FB8209E0FB8ADB002C4A1344184681
:108BE000FFF725FFFB8A0133FB82FB8A012BF2D9B9
:108BF0000023FB8209E0FB8ADB00254A1344184668
:108C0000FFF715FFFB8A0133FB82FB8A002BF2D0B2
:108C100000F0ECFA03467B7597F91530002B02D073
:108C200097F915302CE000F004FA3861002138691A
:108C300000F0C6F9F860174A0221F86800F0A0FCBD
:108C400003467B7597F91530002B02D097F9153044
:108C500016E0104B1B68184601F034FC3968786840
:108C600001F0A2F903467B7597F91530002B02D06D
:108C700097F9153004E0044B01221A7097F915306A
:108C800018461837BD4680BD8C340020743400204F
:108C9000843400203C32002080B483B000AF786080
:108CA0000B467B80012318460C37BD465DF8047BDC
:108CB000704780B483B000AF78600B467B800023A0
:108CC00018460C37BD465DF8047B704780B58AB006
:108CD00000AFF8607A603B600B467B8100237B62CB
:108CE00000233B620023FB6100237B610023FB76B2
:108CF000FB68B3F1FF3F08D0FB68002B02DBFB6889
:108D0000012B02DD4FF0FF334AE07B68002B02D1DC
:108D10004FF0FF3344E000F043F902463B6B9342CF
:108D200002D04FF0FF333BE07B6B002B02D14FF0C2
:108D3000FF3335E03A6B7B6B13443A689A4202D2B8
:108D40004FF0FF332CE0184B1B78002B02D16FF053
:108D5000080325E07B687B627B6808333B623B68E5
:108D6000083BFB6172B607F114027B6BF969386A44
:108D700001F0A6FA0346FB7697F91B30002B0BD1C6
:108D80007A697B6A5A60FB68DB00084A1344796A97
:108D90001846FFF75CFE00E000BF62B697F91B3093
:108DA00018462837BD4680BD8C340020743400201E
:108DB00080B584B000AF0023FB7300237B600023E9
:108DC0003B600123BB60244B1B78002B02D16FF06A
:108DD00008033CE072B6BB68DB00204A13443A4605
:108DE00011461846FFF748FE62B63B68002B0CD1CF
:108DF00072B60023BB60BB68DB00184A13443A46D6
:108E000011461846FFF738FE62B63B68002B1AD0B1
:108E10003B685B687B603B687A680821184601F014
:108E2000F5F80346FB7397F90F30002B0DD072B69F
:108E3000BB68DB00094A13443A6811461846FFF73D
:108E40003AFE62B601E0FE23FB7397F90F30184635
:108E50001037BD4680BD00BF8C3400207434002024
:108E600080B584B000AF0023FB730023BB600023F8
:108E70007B60124B1B78002B02D16FF0080318E0C7
:108E800007F108023B1D0821184601F073F903465B
:108E9000FB7397F90F30002B09D17B68BA685A60D1
:108EA00072B67B6819460648FFF7D1FD62B697F99E
:108EB0000F3018461037BD4680BD00BF8C340020EF
:108EC0008434002080B588B000AFF860B9607A6063
:108ED0003B6000233B610023FB610023BB61002357
:108EE000FB75FB68002B02DBFB68002B02DD4FF0FB
:108EF000FF334DE0BB68002B02D14FF0FF3347E05A
:108F00007B68002B02D14FF0FF3341E03B68002B20
:108F100002D14FF0FF333BE0BB6A002B02D14FF090
:108F2000FF3335E01C4B1B78002B02D16FF0080398
:108F30002EE072B6FB68DB00184A134407F11002FA
:108F400011461846FFF798FD62B63B69002B02D127
:108F50006FF001031CE03B690833FB613B695B6810
:108F6000BB61BA6AB969F86901F0E0F90346FB75BB
:108F70003A69BB681A603B695B6803F108027B6869
:108F80001A6000F00DF802463B681A6097F9173036
:108F900018462037BD4680BD8C3400208434002024
:108FA00080B582B000AF08237B6001F051FA024621
:108FB0007B6813447B607B6818460837BD4680BDDC
:108FC00080B584B000AF78600B46FB700023FB6077
:108FD0000023BB60FB78002B03D101F052FA03465B
:108FE00002E001F045FA0346BB607A68BB689A422A
:108FF00001D9002312E00823FB6001F029FA0246A0
:10900000FB681344FB60FA687B681344FB6001F063
:1090100027FA0246FB681344FB60FB6818461037CA
:10902000BD4680BD80B500AF01F022FA0346184668
:1090300080BD80B500AF01F024FA0346184680BD1C
:1090400080B582B000AF0023FB7101F023FA034624
:10905000FB7197F90730002B02D097F9073005E034
:10906000FFF74EFDFFF778FD97F9073018460837F0
:10907000BD4680BD80B582B000AF0023FB7101F01A
:1090800009FA0346FB7197F90730002B02D097F9D4
:10909000073003E0FFF734FD97F90730184608372B
:1090A000BD4680BD80B400AF034B1B681846BD466B
:1090B0005DF8047B704700BF3C32002080B582B071
:1090C00000AF0023FB7000237B60274B1B78002B35
:1090D00001D1002343E001F005FA0346FB7097F944
:1090E0000330002B02D097F9033038E0FFF708FD7A
:1090F000FFF732FD1D4B1B68184600F043FB00F0E4
:10910000EDFC0346FB7097F90330002B02D097F972
:10911000033024E000237B6009E07B68DB00144A15
:1091200013441846FFF7E0FC7B6801337B607B68E3
:10913000012BF2DD00237B6009E07B68DB000D4A38
:1091400013441846FFF7D0FC7B6801337B607B68D3
:10915000002BF2DD044B00221A7097F903301846F9
:109160000837BD4680BD00BF8C3400203C32002053
:10917000743400208434002080B588B000AFF860DB
:10918000B9607A60FB68002B2BD00023FB61BB68C1
:109190001A1D7B6802FB03F37B617A690021F86882
:1091A0000BF091FB0023BB6117E0FB683B613B695F
:1091B00000225A603B69FF221A70FB69002B02D023
:1091C000FB693A695A60BB680433FA681344FB6070
:1091D0003B69FB61BB690133BB61BA697B689A4239
:1091E000E3D300BF2037BD4680BDFFFF80B584B00C
:1091F00000AF5F4B033323F00303BB6003225D49E1
:109200005D4800F033FE0023FB7352E0FB7B594ABC
:1092100052F823307B60FB7B574A52F823303B6087
:10922000FA7B564913469B0013449B000B44BA68D3
:109230001A60FA7B514913469B0013449B000B4470
:1092400008337A681A60FA7B4C4913469B00134432
:109250009B000B4404337A681A60FA7B4749134633
:109260009B0013449B000B440C333A681A603B6824
:109270000433FA7B796801FB03F1404813469B00F5
:1092800013449B000344103319607A683968B86846
:10929000FFF772FFFA7B394913469B0013449B008A
:1092A0000B4410331B68BA681344BB60FB7B01336B
:1092B000FB73FB7B022BA9D940F2D6220021304858
:1092C0000BF001FB2F4B00221A600323FB7333E0EA
:1092D000FA7B2A4913469B0013449B000B4400224F
:1092E0001A60FA7B254913469B0013449B000B44EC
:1092F000083300221A60FA7B204913469B0013446E
:109300009B000B44043300221A60FA7B1B4913466E
:109310009B0013449B000B440C3300221A60FA7B21
:10932000164913469B0013449B000B441033002244
:109330001A60FB7B0133FB73FB7B042BC8D9002332
:10934000FB730DE0FB7B104A002142F83310FB7BDE
:109350000D4ADB00134400225A60FB7B0133FB7390
:10936000FB7B002BEED0002318461037BD4680BD96
:10937000FC3400204C320020403200209034002089
:109380006C35002044380020F434002080B487B0CD
:1093900000AF78600023FB6000233B617B68002BFB
:1093A00001D100234FE072B60023FB7520E0FB7D66
:1093B000284A52F82330FB607A68FB689A4214D836
:1093C000FA7D254913469B0013449B000B4404334C
:1093D0001B68002B09D0FA7D1F4913469B001344DC
:1093E0009B000B441B683B6105E0FB7D0133FB7573
:1093F000FB7D022BDBD93B69002B02D162B6002337
:1094000021E0FA7D3B695968134813469B001344D9
:109410009B0003441960FA7D0F4913469B001344D7
:109420009B000B4404331B68591E0B4813469B00DA
:1094300013449B000344043319603B69FA7D1A709E
:1094400062B63B69043318461C37BD465DF8047BA1
:10945000704700BF403200209034002080B584B0B7
:1094600000AF78607B68002B00F082807B68043B53
:10947000FB60FB681B78FB72FB7A042B16D9FB7A26
:10948000052B13D8FB7A053BFB72FB7A3A4ADB00CB
:1094900013445B68002B68D0FB7A374ADB00134427
:1094A0005B687A68043A104698475EE0FB7AFF2BC7
:1094B0005DD0FB7A042B5AD8FB7A022B2AD872B6DD
:1094C000FB68FF221A70FA7A2C4913469B0013445A
:1094D0009B000B441A68FB685A60FA7A27491346C6
:1094E0009B0013449B000B44FA681A60FA7A2349E4
:1094F00013469B0013449B000B4404331B68591C08
:109500001E4813469B0013449B0003440433196018
:1095100062B62DE072B6FB68FF221A70FA7A17491C
:1095200013469B0013449B000B441A68FB685A6067
:10953000FA7A124913469B0013449B000B44FA68C5
:109540001A60FA7A0D4913469B0013449B000B44A2
:1095500004331B68591C094813469B0013449B00A5
:1095600003440433196062B602E000BF00E000BFAC
:109570001037BD4680BD00BFF43400209034002079
:1095800080B58AB000AFF860B9607A607A4B033377
:1095900023F003033B620023FB774FF0FF33BB61F3
:1095A0007B68002B05D0FB68002B02D0BB68002B2A
:1095B00002D14FF0FF33DBE0FB68033323F00303FA
:1095C000FB60FB681A1DBB6802FB03F37B6172B68C
:1095D000032387F82730B8E097F827206749134618
:1095E0009B0013449B000B441B68002B40F09B80A6
:1095F00097F82720614913469B0013449B000B44B6
:1096000010331B68002B4DD15D4B1B68C3F53473C1
:1096100003337A699A4200F29E8097F827205749CF
:1096200013469B0013449B000B443A6A1A6097F858
:109630002720524913469B0013449B000B440833D8
:10964000BA681A6097F827204C4913469B001344C8
:109650009B000B440433BA681A6097F827204749E7
:1096600013469B0013449B000B440C33FA681A60AA
:1096700097F82720414913469B0013449B000B4455
:1096800010337A691A60BA68F968386AFFF774FDAE
:109690003B4B1A687B691344394A136097F82730AB
:1096A000BB6158E097F82720344913469B001344C8
:1096B0009B000B4410331B687A699A4233D897F8A1
:1096C00027202E4913469B0013449B000B443A6A03
:1096D0001A6097F82720294913469B0013449B00E2
:1096E0000B440833BA681A6097F8272023491346B9
:1096F0009B0013449B000B440433BA681A6097F82C
:1097000027201E4913469B0013449B000B440C3337
:10971000FA681A60BA68F968386AFFF72DFD97F899
:109720002730BB6118E097F82720144913469B00A7
:1097300013449B000B4410331B683A6A13443B628A
:1097400097F82730013387F8273097F82730042B14
:109750007FF642AF00E000BF62B6BB69B3F1FF3FE6
:1097600001D1F623FB777B68BA691A6097F91F303D
:1097700018462837BD4680BD6C3500209034002047
:109780004438002080B485B000AF78600123BB73FB
:109790007B68022B02DD7B68042B02DD4FF0FF3378
:1097A00084E072B60423FB731AE0FA7B4249134645
:1097B0009B0013449B000B441B68002B0AD1FA7BCF
:1097C0003D4913469B0013449B000B4410331B6818
:1097D000002B02D00023BB7306E0FB7B013BFB7335
:1097E000FB7B7A689A42E0DB33497A6813469B0038
:1097F00013449B000B4400221A602F497A681346D9
:109800009B0013449B000B44083300221A602A4932
:109810007A6813469B0013449B000B4404330022D8
:109820001A6025497A6813469B0013449B000B4439
:109830000C3300221A60BB7B002B35D00323FB7353
:109840002FE0FA7B1C4913469B0013449B000B44FA
:109850001B68002B22D1FA7B174913469B00134447
:109860009B000B4410331B68002B17D0134B196857
:10987000FA7B114813469B0013449B0003441033AA
:109880001B68CB1A0D4A1360FA7B0B4913469B00E9
:1098900013449B000B44103300221A60FB7B0133FE
:1098A000FB73FB7B042BCCD962B60023184614371C
:1098B000BD465DF8047B704790340020443800209A
:1098C00080B487B000AFF860B9607A600023FB75A0
:1098D0004FF0FF333B617B68002B05D0FB68002B0A
:1098E00002D0BB68002B02D14FF0FF3331E072B6DB
:1098F0000023BB751EE0BB7D194A52F83330002BA4
:1099000015D1BB7D164ADB0013445B68002B0ED1DA
:10991000BB7D05333B61BB7D1149FA6841F83320BB
:10992000BB7D0F4ADB001344BA685A6005E0BB7D7B
:109930000133BB75BB7D002BDDD062B63B69B3F153
:10994000FF3F01D1F623FB757B683A691A6097F9EE
:10995000173018461C37BD465DF8047B704700BFC2
:10996000F434002080B483B000AF78607B68042BAF
:1099700002DD7B68052B02DD4FF0FF330FE072B68E
:109980007B68053B094A002142F833107B68053BA0
:10999000064ADB00134400225A6062B600231846D0
:1099A0000C37BD465DF8047B704700BFF4340020DF
:1099B00080B584B000AF786039600023FB603B68FD
:1099C000002B01D1002381E07B68042B21DD7B6823
:1099D000052B1EDC7B68053B3E4A52F83330002BDA
:1099E00015D07B68053B3B4A52F833303A68043265
:1099F00010469847F860FB68002B01D1002365E012
:109A00007B68DAB2FB681A70FB6804335EE00023FF
:109A10005CE07B68022B18DD7B68042B15DC2E498B
:109A20007A6813469B0013449B000B441B68002B71
:109A30000BD029497A6813469B0013449B000B44C2
:109A40000C331B683A689A4201D900233EE072B693
:109A500021497A6813469B0013449B000B4404334E
:109A60001B68002B08D01C497A6813469B001344DE
:109A70009B000B441B68FB60FB68002B02D162B6A5
:109A8000002323E0FB68596813487A6813469B005B
:109A900013449B00034419600F497A6813469B00E6
:109AA00013449B000B4404331B68591E0A487A6810
:109AB00013469B0013449B000344043319607B68E6
:109AC000DAB2FB681A7062B6FB68043318461037C6
:109AD000BD4680BDF43400209034002080B500AF36
