:10400000007F0020054100002D4400000141000018
:104010000141000001410000014100000141000098
:10402000000000000000000000000000A17400007B
:1040300001410000000000005D7400004D730000AD
:104040000000000000000000000000000000000070
:104050000000000000000000000000000000000060
:104060000000000000000000000000000000000050
:104070000000000000000000000000000000000040
:104080000000000000000000000000000000000030
:104090000000000000000000000000000000000020
:1040A0000000000000000000000000000000000010
:1040B0000000000000000000000000000000000000
:1040C00010B5054C237833B9044B13B10448AFF352
:1040D00000800123237010BDF800002000000000C4
:1040E00050FA000008B5034B1BB103490348AFF376
:1040F000008008BD00000000FC00002050FA000015
:1041000000BE704708B500F005F803F083FAFEE73B
:10411000704700BF70B5434A434B444C4FF47005A1
:104120004AF202500121C2F8885082B09460A3F88C
:10413000FE031A4683F81F1492F8B134DB06FBD550
:1041400000204FF425460446A2F8FE63FFF7E0FF87
:1041500000F0B8F88DF8074001209DF8073000F016
:10416000C5F9EFF31082012585F31088304B99686B
:1041700021F000419960996882F310882D4A1168F6
:10418000C1F300018DF807101168C1F300018DF82B
:1041900007101268C2F300028DF80720EFF31082B7
:1041A00085F31088996841F0004199609B6882F31B
:1041B0001088284600F06AF92846FFF7A9FF1E4B31
:1041C0001E499C801E801E4E9E601E481E4E1F4A29
:1041D000DE604FF48056A1F82061121A9D802146BE
:1041E00009F0F1FB1A481B4A1B491C4D121A09F031
:1041F000DFFB1B4B5B1BA3424FEAA30605DD01342B
:1042000055F8043B9847A642F9DC00F047F8022035
:10421000FFF77EFF00F026F9002002B0BDE87040F5
:1042200000F0CEB800ED00E000E0014000400000EA
:10423000FC6F044000080440000D00400060004096
:10424000007B0020F8000020007F002034140020B4
:1042500000000020E00000205CFA0000B400002014
:10426000D00000200C4A92F8363063B10A4A92F826
:10427000A030D906FBD4084982F8A00091F8A030FC
:10428000DB06FBD4704792F83C30DB07EED492F8A3
:104290003C30DB07F7D5E9E700E00140064B074972
:1042A00093F826001A6A51F820300549C2F30262D9
:1042B000D3400B60704700BF00E00140E0000020E9
:1042C0000013002070B5374C374B3848384A6260CD
:1042D000384900224AF20355A3F8FE53A0F8002102
:1042E00021604FF4004193F82600E2606261A16012
:1042F0002161196A54F820202F4DC1F30261CA4090
:10430000082009212A6083F8130483F8A21093F887
:104310008024002A3BD0244B002083F8810483F8BA
:10432000800493F8A030002B39D11F4B002283F872
:10433000362093F83C20D207FBD5012100201F4AEC
:1043400083F8311083F826001A6293F82620186A41
:1043500054F82220154CC0F30260C2402A600426A3
:1043600084224FF4254083F83E6083F83E2083F892
:10437000D0102246A3F8FE03A4F80411B2F80431C9
:104380009BB2002BFAD10123A2F8003170BD0121AC
:1043900083F8801440F2C44000F01AF8BBE7FFF73E
:1043A00061FFC2E7E000002000E0014000C00140E2
:1043B00000127A00006CDC020013002000010110E2
:1043C000704700BFA0F101000028FBD1704700BF7B
:1043D000144B70B401FB00F14FF47A761B6812485D
:1043E000B0FBF3F0A1FB064500234FF0FF32AB42D8
:1043F00008BFA24206D3B4FBF0F0800880B170BCC5
:10440000FFF7E0BF8000B1FBF0F0A0FB06018B429C
:1044100008BF8242F2D24FF0FF3070BCFFF7D2BF2C
:1044200070BC70470013002000CA9A3B0B4B70B55C
:10443000B3F840510A4E0024ADB225FA04F3DB076D
:10444000E0B203D556F8243003B198470134102C5C
:10445000F3D1024BA3F8305170BD00BF00600040A3
:1044600004130020074830B4074D00F12004034630
:104470001A1A13F8011BC032A34245F82210F7D1D3
:1044800030BC7047F9F8000000600040EFF3108185
:10449000012383F31088124B33F8102092B22AB113
:1044A00033F81020013A92B223F8102033F810307C
:1044B0009BB28BB90B4A10B40B4CB2F8FE3334F8F4
:1044C000100043F4254323EA0003A2F8FE3381F3EE
:1044D00010885DF8044B704781F31088704700BF67
:1044E000C413002000E0014030ED000030B4EFF3D1
:1044F0001081012383F310880C4A32F810309BB2EC
:1045000053B90B4C0B4DB4F8FE3335F8105043F44F
:1045100025432B43A4F8FE3332F8103001339BB20D
:1045200022F8103081F3108830BC7047C41300208B
:1045300000E0014030ED000010B50C46012104F010
:10454000EFFA20460021BDE8104004F0E9BAFFFF71
:104550002DE9F843074614461E469DF820800D4677
:1045600019B90121104604F0DBFA0021204604F0BD
:10457000EFFA02F0ADFD814602F0AAFDA0EB0900C2
:104580000528F9D90121204604F0E2FA02F0A0FD45
:10459000814602F09DFDA0EB09004045F9D90021BC
:1045A000204604F0D5FA1DB92946304604F0B8FA81
:1045B000034A0121304605F09FF93860BDE8F883D1
:1045C00040420F000020704770B50D460646002897
:1045D00033D0002931D01A4C4FF040430022D4E9A7
:1045E000000105F08DFE234610B3D5E90001C4E9B2
:1045F0000001D3E900237368124A19681160124A56
:1046000059681160114A99681160DA68104B1A6094
:10461000104B00221A6000F0E5FA0F4B0F4AC3E975
:10462000002200F033FA10B90D4B01221A7070BD50
:10463000D4E90001C5E90001DBE74FF0FF30F6E700
:1046400000000020AC010020B0010020B4010020D7
:10465000B8010020BC01002014010020314C0000F2
:10466000C10100202DE9F84F214D224E95F8008020
:1046700002235FFA88F83370074618BB2B781BBB00
:104680001D4B1B78B3FA83F35B09DFF86C90DCB247
:104690004FF0000B42F2107A2B781BB999F80030DA
:1046A00003B99CB1002C4FF0030333700CBF0024FE
:1046B0006FF06304B8F1000F01D100F0B1FC2046A7
:1046C000BDE8F88F0023E0E70346DEE70A2002F0AA
:1046D000C1FC7B1CD34408D05F452CBF00230123C1
:1046E0000020DCB200F0FAF9D6E72346F8E700BF75
:1046F000C0010020C1010020C201002038B5002205
:104700002DED028BB0EE408AF0EE608A0446002365
:1047100051EC100B05F0FEFD90BBFF2C30D81A4B6E
:104720001A78032A02D01A78012A01D104221A70B9
:10473000012C10D901252046B0EE480AF0EE680A97
:1047400000F07EF901462046A5B1BDEC028BBDE824
:10475000384000F0FFBD0D4D55F82430002BE9D056
:1047600000F004FE0228E5D155F824302046984791
:104770000546E0E700F016FE2846BDEC028B38BD8A
:104780004FF0FF30F9E700BFC10100201401002005
:10479000002000F0A3B9FFFF38B5084C06232370B2
:1047A00000F0CEF9082205460021054809F00BF972
:1047B00000F0D8FB00232370284638BDC10100203B
:1047C00014010020014B1878704700BFC20100207F
:1047D000014B1878704700BFA8010020FFFFFFFFC2
:1047E0002DE9F043244B1A7985B00AB100221A71E1
:1047F0000A230922009301210B2303A8FFF7A8FE37
:1048000003981E4C05F09AFA19A3D3E9002305F08A
:104810000FFB1B4B002205F00BFBA56A194B013562
:10482000C3E90001A56215B9E36A0133E362D4E983
:104830000C67E06A05F082FA32463B4605F0F8FA6A
:104840000022114B05F0F4FA80462846894605F00F
:1048500075FA32463B4605F0EBFA02460B464046F7
:10486000494605F02FF9C4E9080105B0BDE8F08319
:1048700048C153C8957A363FD0130020200100204C
:104880000000E03FE01300200000F041FFFFFFFFC9
:1048900010B5234C48220021204609F094F8214B02
:1048A000214922480022C4E90E231BA3D3E9002397
:1048B000C4E90C231E4BA360A3F14A53A3F57A135A
:1048C000A3F22753E3601B4A1B4BC4E904231B4B91
:1048D0001B4A1A60C2E9001104F1180263609A6071
:1048E00004F108022034DC60164C5A6000210822D2
:1048F00009F069F810220021204609F064F801232C
:104900000B21092023732360FFF716FE0023237178
:1049100010BD00BFAFF300809A9999999999B93F5A
:1049200020010020000049403CED0000E013002081
:104930001924E890B6B0814F9DAC74FC680100204A
:104940007C010020D01300207047FFFFFFFFFFFF16
:104950002DE9F84355EC104B002855D10022304B7F
:1049600010EE100A294605F063FA06460F469FED41
:10497000281B47EC106B08F06FFE51EC100B05F094
:1049800007FD25A3D3E9002380463946304605F0CC
:10499000DFFC40B120A3D3E900233046394605F0BF
:1049A00071FB05F0F5FC1F4B1F4EC3F800805860EB
:1049B000D6E9000100221D4B05F0A2FC08BBD6E998
:1049C000000100224FF0404305F09AFCC8B9D6E937
:1049D000000122462B4605F073F8002280468946E6
:1049E000134B2046294605F023FA02460B46404663
:1049F00049464FF0010605F08DFC00B906460D4B07
:104A00001E700D4BC3E90045BDE8F883AFF300808D
:104A1000000000000000F0410000E0FFFFFFEF4158
:104A200000408F4090010020000000200000F0BFF7
:104A30000000B03CA801002088010020FFFFFFFF1C
:104A400038B555EC104BFFF783FF0EA3D3E90023D5
:104A50002046294605F0ECF90022094B05F032F812
:104A60009FED051B41EC100B08F0F6FD51EC100B0F
:104A700005F08EFC38BD00BF000000000000F041D2
:104A80000000E03F0000000080842E4113B502AC1E
:104A9000002344F8043D00930E4B00200021C3E99D
:104AA00000010D4B00200021C3E9000121466846AA
:104AB00002F0A2FADDE9000101F0E6FD38B9214675
:104AC000684602F09FFADDE9000100F055FB02B0F4
:104AD00010BD00BF98010020A001002070B506465F
:104AE000002002F0B7FA01F023FD0446C8B10230FD
:104AF00019D1002500F060FB044608B1821C12D1D8
:104B000015B9A51C18BF012501F0DCFC044608B14D
:104B1000831C08D115B9A51C18BF01254EB9204624
:104B200070BD0125E6E7002EF9D0002002F092FAD0
:104B3000F5E7002002F08EFA002DD4D1EFE7FFFF59
:104B4000F8B51D4D2A7812B1002000F029FC00F0C4
:104B50000DFC4FF4FA6448B10A2002F07BFA012000
:104B6000FFF7BCFF00F002FC013CF4D100F004FCB4
:104B700001F0E4FD114B00211970114B1970114B1C
:104B80001960114B1960114B1960114B1960114BD1
:104B90001960114B044600264FF0404708220F4889
:104BA000C3E90067297008F00EFF0D4B00200021BB
:104BB000C3E900012046F8BDA8010020C001002083
:104BC000C2010020AC010020B0010020B40100208F
:104BD000B8010020BC01002000000020900100204E
:104BE000880100200A4B00200021C3E90001094B85
:104BF00000201870084B1A78084B1A70084B187070
:104C0000084B1870084B1860084B1870704700BFAD
:104C1000E8010020F0010020E1010020E501002072
:104C2000F8010020F1010020F4010020E201002041
:104C30002DE9F74F04468E4D28BB8E4B29781A7804
:104C400028781870914207D08B4B1C708B4B1C70CE
:104C50008B4B1C608B4B1C702B78012B13D1894B19
:104C60001A7812B9884A127832B91A78012A0AD108
:104C7000834A1268012A06D1814900220A608249CA
:104C80000A7002221A702B78012B40F089807F4B2A
:104C90001B889C4240F084807D4A1368002B7FD0A3
:104CA0007C49097811B91268002A79D0754A1278BE
:104CB000022A75D1714E3278002A71D1D3E900AB46
:104CC000754B01931A78DFF8F081002A60D0734A9F
:104CD0001378002B00F083801378991E4B424B41D0
:104CE0001178012900F02E811278023AD2F10009E0
:104CF00049EB020923B36A4F5046D7E900235946CE
:104D000005F01CFB30B1D7E90023D8E9000105F01C
:104D100001FB68B9D7E900235046594605F018FB56
:104D200070B1D7E90023D8E9000105F0E9FA38B1FC
:104D30005C4B1B6813B9504B01221A70012333706E
:104D4000B9F1000F24D0564F5046D7E900235946F9
:104D500005F0E0FA30B1D7E90023D8E9000105F009
:104D6000EDFA68B9D7E900235046594605F0C8FA6C
:104D700070B1D7E90023D8E9000105F0E9FA38B1AC
:104D8000484B1B6813B93C4B01221A700123337046
:104D90003378019AB3FA83F3C8E900AB5B09137067
:104DA000414F002C40F0C580364B33491A783648C5
:104DB0003E4EB2B9314A347014700278BAB1022250
:104DC0001A7004702A78B2FA82F252091C78042C04
:104DD00000F2A980DFE804F0189422823C0001234D
:104DE0007EE70470327822B11C700C703470224659
:104DF000ECE72A7832B1DFF884C09CF800208CF808
:104E00000040E3E70122E1E702781AB102221A70BA
:104E10000023037000233B70174B8FE0002AF9D06A
:104E2000204A1068002808DD2878012805D111687B
:104E3000134A116003221A70ECE71D480268002A29
:104E40006FD001220A7001680D4A11600422F2E756
:104E50000B4804680CB1013C04600468002CD9D1F3
:104E6000144D2D78012D29D10C701C70D2E700BF94
:104E7000E1010020E5010020F8010020F1010020FF
:104E8000F4010020E201002008000020CA010020F7
:104E9000DC010020E0010020F0010020C80100201A
:104EA000D0010020C4010020E3010020C301002044
:104EB0000C000020D8010020E8010020244D2E68BD
:104EC00026B12A6802600C700122B4E71AB1214AA7
:104ED00012680260BAE70A700222ACE71E4A106844
:104EE00008B1013810601068002893D1194C20686F
:104EF00018B1012008702168A7E70870187089E7C9
:104F0000154804680CB1013C04600468002C81D190
:104F1000002AE1D00F4C22681AB101220A702268DF
:104F2000D7E70A7087E700220A700C4932700A70CE
:104F300081E73B78002B3FF46FAF094B187803B043
:104F4000BDE8F08F002B3FF4FEAE9946D3E600BFDC
:104F5000CC0100200C000020F4010020F101002011
:104F6000E4010020194900220023C1E90023184967
:104F70000020087017490870174908701749088001
:104F800017490870174908701749086017490870D1
:104F90001749087017490860174908701749C1E98F
:104FA0000023174B4FF47A721A60164B1860164B99
:104FB0001860164B1870164B01221A70154B18709A
:104FC000154B1870154B1870704700BFE801002092
:104FD000F0010020E2010020E5010020CA010020CC
:104FE000F8010020F1010020F4010020E40100207C
:104FF000E3010020DC010020E0010020D0010020BE
:105000000C000020CC010020C4010020C8010020B9
:1050100008000020C3010020E1010020D801002089
:105020000D4B1B7853B90D4B0D4918780D4A30B113
:10503000087820B90C4901230B7013707047097868
:1050400039B11B7803F0FF011BB9074B197001231D
:10505000F3E70023F1E700BFE10100200800002092
:10506000C3010020E3010020E401002002231360BB
:105070004FF0FF30704710B5144608B101F014FC32
:105080000020206010BD10B9FF230B707047FE2375
:1050900010300B700F2828D8DFE800F02523211FDF
:1050A0001D1B17191513110F0B080D2730234B70FB
:1050B00070472923FBE72223F9E70023F7E723239F
:1050C000F5E72123F3E71123F1E72723EFE72A236D
:1050D000EDE71023EBE72423E9E72823E7E726237E
:1050E000E5E73123E3E73323E1E72023DFE7FFFFB1
:1050F000014B1878704700BF11020020014B187057
:10510000704700BF11020020014B1878704700BFA4
:1051100010020020024A137818431070704700BF35
:1051200010020020024A137823EA00001070704732
:1051300010020020014B1878704700BF0D020020BC
:10514000014B1888704700BF0E020020F0B579B9F6
:105150000B461846F0BD06FB04F54F194D5D0134B2
:10516000854208BF3B469442F3D0002BF3D0F0E7D2
:10517000002423460C26F6E770B50D4E34789CB912
:1051800000F0A6F900F0ACF90A4D286000F090FE9E
:1051900000F0A2FEA86001F027F901F02DF901232B
:1051A00068603370204670BD6FF00B00FBE700BFF6
:1051B0000C020020FC0100202DE9F0415F4B88B07B
:1051C0001B780020CDE90300CDE905000790002BF6
:1051D00000F0B08006AB009304AA05AB03A901F070
:1051E00009FA044618B1431DDBB2012B7BD8039B9F
:1051F000002B00F09C80DDE90521049855188542BC
:1052000000F29580985CC02803EB020647D1012983
:1052100045D972784A490D78002D56D0F02840D8EB
:1052200000F11C03DBB20C2B49D900F12D03DBB2DA
:105230000F2B46D9C02802D1013A012A41D900F1E9
:105240003803DBB20A2B3ED93E4D3F4B05990398FC
:1052500007AA98478046F5B1079FE7B1069B9F4292
:1052600049D80024069A0021304608F0ACFB94B9D6
:10527000059B0399079A19444046A847079B019349
:10528000059B00934FF6FF71DDE90323012001F038
:1052900077F9044638BB204608B0BDE8F08100220B
:1052A000B8E70023294A52F82330002BCCD0984786
:1052B0000028C9D0D0E90135002BC7D111E0012366
:1052C000F0E70223EEE70323ECE7FF2811D11F4AA2
:1052D00012681AB918466FF00B0407E090470028CF
:1052E000E8D16FF00B0403980028D4D001F0DCFA69
:1052F000D1E7174BAAE701F01BFA0446039801F027
:10530000D3FA0021384601F0ABF9049001F032F9EC
:105310000499059041B1204601F0BCFB03900028A0
:105320009FD16FF009049DE76FF007049AE76FF0D3
:105330000704D8E76FF00804ADE700BF0C020020B7
:1053400011020020875000006D500000FC01002079
:1053500077500000044B1B7813B1002200F0C2BD4F
:105360006FF00800704700BF0C020020014B187856
:10537000704700BF1102002008B501F043F800F0AB
:10538000D5FF00F0B3F810220021034808F01BFB02
:10539000024B0020187008BDFC0100200C02002008
:1053A00000F0DEBE0122002100F09CBD0623136048
:1053B0000020704707220149FFF7C8BE40ED0000FA
:1053C000F8B545180C4B6F781E68144601F09AF931
:1053D000B84204D8022323606FF00100F8BD26B95B
:1053E000022323606FF00B00F8E76B78034A137019
:1053F000013323600020F1E7180200202002002082
:1054000010B5144600F022FF18B101F088F900F041
:105410001FFF022323606FF0040010BD10B50C467F
:1054200006220021204608F0CEFAFF232370FFF762
:105430006BFE6070FFF77EFEA070FFF781FEA0801C
:1054400010BD10B5144600F005FF20B902232360FB
:105450006FF00A0010BD0020FFF750FE012323600B
:105460000020F7E738B51446451800F0F3FE20B9E0
:10547000022323606FF00A0038BD6B78012B04D93A
:10548000022323606FF00100F6E70120FFF736FEEC
:10549000082323600020EFE738B50C46054698B98D
:1054A00001460822204608F08EFAFF2323700523C8
:1054B0006370A57001F026F9E07001F021F9012375
:1054C000A080A371E37138BDBDE83840FFF7DBBDB4
:1054D000014B024A1A60704714020020B5530000C5
:1054E000014B1868704700BF14020020014B0022D6
:1054F0001A60704714020020014B1868704700BF03
:105500001802002001B918B1024B1860197101206E
:10551000704700BF1802002070B544181546667821
:1055200001F0F0F8B04204D802232B606FF00100C4
:1055300070BDE1786068FFF7E5FF20B902232B60BA
:105540006FF00B00F4E76378024A137001332B60AD
:105550000020EDE72002002008B50844C17840682B
:10556000FFF7D0FF20B9022313606FF00B0008BDD6
:10557000012313600020FAE7024A13681844106000
:10558000704700BF18020020064B10B5064C196882
:105590002278013008F00CFA2078FFF7EDFF0023A5
:1055A000237010BD180200202002002070B50C46A8
:1055B000154698B90C4A014616682046012208F0A3
:1055C00002FAFF2323706EB1084B1B780133AB4204
:1055D00008D12046BDE87040FFF7D6BFBDE8704057
:1055E000FFF751BD70BD00BF18020020200200204F
:1055F00070B50C46154698B90C4A01461668204607
:10560000012208F0E0F9FF2323706EB1084B1B78EC
:105610000133AB4208D12046BDE87040FFF7B4BF6C
:10562000BDE87040FFF72FBD70BD00BF180200201D
:1056300020020020054B1A68182303FB0020407944
:10564000023801288CBF002001207047280200206A
:10565000084B10B500219C8808468BB29C4201D9AA
:10566000013118B1B0FA80F0400910BD1846FFF7BB
:10567000E1FFF2E72802002010B50E4C2368B3B119
:10568000A488844213D9182460431C18185868B1A0
:1056900023798B420BD9C1EBC101890043184058D3
:1056A00020B11879904294BF0020012010BD002045
:1056B000FCE700BF28020020094B1A68182303FBEF
:1056C00000231A7B022A08D1DA88064B1B889A42EB
:1056D00003D0B0FA80F0400970470020704700BF47
:1056E00028020020180000200246C1EBC100136808
:1056F00003EB8003D0899B684343581C19B9127A85
:10570000D20648BF581D70472DE9F04101441446A8
:105710004F884D790E791FFA87F82A463146404660
:10572000FFF7AAFF28B9022323606FF00100BDE84C
:10573000F0814046FFF77EFF20B1022323606FF027
:105740000700F4E7034B1F809E70DD700123236088
:10575000EDE700BF140000202DE9F843234FB7F810
:105760000090BD78FC7800EB0108164629462246D9
:105770004846FFF781FF28B9022333606FF0050028
:10578000BDE8F8834846FFF755FF20B10223336098
:105790006FF00700F4E798F8012098F802C0D8F8F5
:1057A0000410FF2A04D0022333606FF00100E7E702
:1057B0000F4BD3F800E0182303FB09F3C5EBC50535
:1057C0005EF8033053F825500FFA84FE05EBCE0344
:1057D00005F83E2083F801C098F803209A705960BC
:1057E00001340123FC703360CAE700BF14000020BD
:1057F0002802002038B515461A4A13687BB10144C7
:105800009288488882420AD9182404FB0034FFF7A2
:1058100011FF48B102232B606FF0070003E0022361
:105820002B606FF0010038BD8A8893B27F2BF6D8C9
:10583000CB79002BF3D14B7833F0100004D0022346
:105840002B606FF00900EEE72372E2808B796372C0
:10585000012B4FF00103A07298BF637200202B60F0
:10586000E1E700BF280200200823136000207047F2
:10587000022313606FF00F007047FFFFF8B501447B
:1058800014464B78012B04D0022313604FF0FF30F5
:10589000F8BD1E4FCE8848880D794A793968B3B271
:1058A00021B9022323606FF00300F1E7BF8887422C
:1058B00004D8022323606FF00100E9E720B102233E
:1058C00023606FF00900E3E77DB9012AF7D15A1E82
:1058D00053425341002BF2D00020FFF7ABFE68B1DA
:1058E000022323606FF00700D2E7022DE7D1012ADF
:1058F000E5D1012B94BF00230123EBE701230D73B6
:105900004B73CE8108822360C2E700BF28020020CB
:1059100010B50C4608220021204608F054F8FF225A
:10592000012322706370A270E3702271A37134228C
:1059300000236271E37110BD10B50C4608220021EE
:10594000204608F040F8FF23112223706270A370F4
:10595000E3706FF07F02002322716371A371E37122
:1059600010BDFFFF0D220149FFF7F0BB94ED0000D1
:105970002DE9F84FDFF898800144D8F800300C7911
:1059800091F8059017464A882BB902233B606FF0C7
:105990000300BDE8F88FB8F80410914204D8022340
:1059A0003B606FF00100F4E7182656439A1953F84C
:1059B00006A0BAF1000FE8D01379A342EFD9C4EBE7
:1059C000C404A4005AF80450002DDED1B9F1000F30
:1059D000E5D04FEAC90B584600F040FFD8F8003038
:1059E0004AF804009B59185920B902233B606FF014
:1059F0000200CEE75A46294607F0E5FFD8F8003006
:105A00009B591C44012384F8049028463B60C0E75E
:105A1000280200202DE9F047DFF880800144D8F803
:105A200000A00F7916464A88BAF1000F05D102236B
:105A300033606FF00300BDE8F087B8F8043093429C
:105A400004D8022333606FF00100F4E77B1EDBB261
:105A5000FB2BF6D8182555435AF80540002CE6D103
:105A6000C7EBC7094FEA8909484600F0F7FED8F8A6
:105A700000304AF80500585920B9022333606FF00E
:105A80000200D8E74A46214607F09DFFD8F80030CB
:105A90001D4401232F7120463360CCE728020020EB
:105AA0002DE9F8430144DFF88C80B1F80290D8F872
:105AB000005017461FFA89F32DB1022313606FF0CF
:105AC0000300BDE8F883591E4FF6FE72914204D9D7
:105AD00002233B606FF00100F3E718245C4320468B
:105AE00000F0BCFE064620B902233B606FF00200C6
:105AF000E7E722462946243407F065FF3444C8F816
:105B00000060A8F8049006F10C034FF0FF31012269
:105B10001833A34203D101233B600020D1E743F8AF
:105B2000101C03F8185C03F8172C23F8162C23F824
:105B3000145CEDE72802002070B5002504462E46CF
:105B40002379E9B28B4205F101050BD804F1140267
:105B500003EB4301304600F0CDFE10B14FF0FF33B0
:105B6000636170BD2046FFF7BFFD012100F078FDA5
:105B7000864238BF0646E3E772B6044B1B68002B2B
:105B80000CBF0120002000D062B670473002002018
:105B90002DE9F74F00EB01081646B8F80230ADF8D2
:105BA00004309FB25E4B186810B19A88BA4206D88A
:105BB000022333606FF0010003B0BDE8F08F594A53
:105BC000176098F8012018217943022A00EB01049C
:105BD00004D9022333606FF00900EDE7657965B9F8
:105BE0004158207A800719D5002939D0D8792179F0
:105BF0000144802934DCE072D971013A012A4CD980
:105C0000FFF7BAFF002800F0868098F80130012BDA
:105C100052D045D3022B7CD0002066E001B39879A6
:105C200021790144FC291BDCE0729971E5E72968C0
:105C300001EBC001013049788B448445F7DCE589EC
:105C40000BFB05F5B9F1000F0FD1217ACB060CD56E
:105C500000F056FD053585428CBF0020012040B97B
:105C6000022333606FF00800A6E700F049FD01351C
:105C7000F1E72168514409F10109C1F808B023791D
:105C80004B45BDDD1C23256803FB09FA55444FF045
:105C9000000B95F804C05846CFE74FF00009EEE737
:105CA00001256571FFF7D4FCF8B12846FFF726FA05
:105CB0004020FFF737FAAFE76369013308D00323C9
:105CC00063710220FFF71AFA4020FFF723FAA3E7D7
:105CD000154BE2881988914210D104F11402D3E9DE
:105CE000010100F0ADFE0028E9D062B602230028D1
:105CF00033600CBF00206FF002005DE7002FDED1A3
:105D0000002ADCD12046FFF717FFBDF804302382BC
:105D1000E9E7637180E7022333606FF00A004BE725
:105D20002802002010000020180000202DE9F04774
:105D3000014416464B78022B05D9022313606FF0FD
:105D40000900BDE8F087494A136817464BB19388AC
:105D50003BB1FFF711FF48B9022333606FF00A002F
:105D6000EFE7022333606FF00100EAE74B78012B85
:105D700055D011D3022B0AD113689288182101FB48
:105D8000023201219A426BD1FFF762FC60B962B620
:105D9000012333600020D4E713689288182101FBA7
:105DA000023201219A4206D10120FFF7A7F94020D3
:105DB000FFF7B8F9EBE7587900B159711833F1E7FB
:105DC000386809FB05FA50444379022B0ED1426929
:105DD00001320BD1C388B8F800209A4214D100F1E7
:105DE0001402D8E9010100F02BFE04460135BB88FE
:105DF000AB421BDD002CE3D062B6002CC8D00223DE
:105E000033606FF002009CE7002DEFD1002BEDD145
:105E1000FFF792FE3B68534404461D82E6E70024E8
:105E200025464FF01809DFF84880E0E7002CE3D161
:105E300025464FF018084FF003090DE03B6808FBBA
:105E400005335879022806D183F80590FFF756F9F3
:105E50004020FFF75FF90135BB88AB42EEDCCBE7B2
:105E60005879022808BF597118338BE7280200209F
:105E70001800002010B40C4668B9FF230B70084AC4
:105E8000084B12681B68182101FB0323DB7A63703F
:105E90005DF8044B70475DF8044BFFF7F4B800BFA2
:105EA0002802002010000020082313600020704703
:105EB00008B5054B054800210822196007F083FD4D
:105EC000034B044A1A6008BD30020020280200205B
:105ED0002402002065590000014B1868704700BF7C
:105EE000240200202DE9F04F91B0CDE90A010C9277
:105EF00072B6984A13680133136062B6964F3B68D6
:105F00000393002B00F02481BE88002E40F01C81FA
:105F100072B6904A1368013B136062B6304611B006
:105F2000BDE8F08FBDF80830182505FB03F4039B8E
:105F300023441A7A90072AD45A79032A27D1DB8876
:105F40000A9A934223D14146304600F0B7FA0C9B9F
:105F500006903D6873B3002D00F0F380BB88434585
:105F600040F2EF804046FFF7A7FB50B125442B8A53
:105F70003BB100244FF01C092B799C4212DB00231B
:105F80002B82069B1BB14146002000F099FA029B30
:105F900001330293BDF80880BB884345B8D9002E71
:105FA000C0D0B5E72B6809FB04330134D86800F092
:105FB0007BFCE1E7002D00F0C480BB88434540F244
:105FC000C0804046FFF778FB25440790C0B12B8A7C
:105FD000EA890133991A4B424B41089300230493F9
:105FE00005939DF814A02B79534501D9049B4BB11F
:105FF0002B8AE989013393FBF1F201FB1233BFE7EE
:106000000123EAE72C6800F0B5FA4FF01C0B079B60
:1060100009900BFB0AFB5C4413B12B8A002B35D192
:1060200051462846FFF760FB0121206100F018FB74
:106030006B695A1C014658D0184600F02BFDE060F1
:10604000E368002B78D0099A134463610B9B0F938C
:106050002B689B440023CBF81830EB7ADBF81490C4
:10606000534409F8013BBAF1000F0DD12B7ADB063E
:106070000AD5484604220FA907F09AFCDBF818302D
:10608000CBF818A004339944CBF81490E3684BB3D1
:10609000324BEA881B889A420BD0D4F814904FF008
:1060A000000A012321795FFA8AF2914220D8C4F8CC
:1060B0001490089BB3B10121206900F0D1FA069B2E
:1060C000B3FA83F623690193099B0093760903468B
:1060D000E2687042414600F053FA064610B1E068AB
:1060E00000F0E2FB059B01337AE700F0B7FBA6E77F
:1060F000206800EBC20B10F83220DBF80410FF2AF6
:1061000012D0096803FA02F20A4214BF01220022E7
:1061100089F800209BF80120A1690A4491440022DB
:10612000A2610AF1010ABDE79BF801200D934846E0
:1061300007F03EFC0D9BEDE7012304936FF0090689
:10614000D0E74FF0FF361CE7002302931E4621E7FD
:10615000039EDDE630020020280200201800002007
:106160002DE9F04F384A136887B0002B66D0FFF74F
:1061700003FD002864D09388156803930024A34688
:10618000039BA7B2BB4204D862B6584607B0BDE82D
:10619000F08F3846FFF790FAF8B1182303FB04F6A6
:1061A00005EB060898F80530032B16D1B8F8103027
:1061B0009BB13946002000F081F9B0FA80F0400927
:1061C000434204934FF0000998F804201FFA89F322
:1061D0009A4204D80023A8F810300134D0E71C23D9
:1061E00003FB09FAAB595344DA6822B31869012159
:1061F00000F036FA059000F0BDF9A95951448346E4
:10620000CA68486909695A44821A8A1A002107F043
:10621000DAFBAA59059B049852441169CDE900B1F3
:106220003946D26800F0ACF9834620B1AB595344EB
:10623000D86800F039FB09F10109C5E79B46A4E7DE
:106240006FF0050BA1E700BF28020020FFF794BC08
:1062500062B67047294A2DE9F84FD2F80080B8F1AC
:10626000000F49D0B2F80490FFF786FC0746B0B1A2
:106270000025234BC2E900554FF0FF321A6062B689
:1062800000F042FADFF87CA044464FF01C0B4D456D
:1062900008DB404600F008FB4020FEF743FF38468D
:1062A000BDE8F88FE388BAF800209A4207D1606908
:1062B00000F0E2FB2368EBB901351834E7E7002D65
:1062C000F8D1002BF6D16069431C01D000F07AFBB5
:1062D0004FF0FF336361EDE70BFB06F3C05808B1E5
:1062E00000F0E2FA013623792068B342F4DC00F0D2
:1062F000DBFAE1E70026F6E70127D0E728020020D5
:10630000100000201800002010B51446FFF7A2FF6F
:1063100020B9022323606FF00A0010BD0120FEF7B0
:10632000EDFE012323600020F7E7FFFF08B5FFF72C
:1063300091FF024B00221A6008BD00BF240200201A
:1063400002220149FEF702BF30EE000070B544188A
:106350001546667800F0D6F90838864204D902233B
:106360002B606FF0010070BDE1786068FFF7CAF83C
:1063700020B902232B606FF00B00F4E76678FFF77B
:10638000BBF8324604F1080107F012FB6078FFF712
:10639000F3F801232B600020E5E7F8B54418154613
:1063A000FFF7AAF86678074600F0ACF946B1023864
:1063B000864205D84FB902232B606FF00B0003E033
:1063C00002232B606FF00100F8BD6678FFF794F8A8
:1063D0003246A11C07F0ECFA6078FFF7CDF80123F4
:1063E0002B600020F0E7FFFF014B024A1A60704764
:1063F0003402002041630000014B1868704700BF61
:106400003402002070470023C0E9003070470023A9
:106410000B60436819604160704703680B60036854
:106420001BB11B68036003B94060704703680B60D1
:1064300003B94160016070470023C0E90030704734
:1064400037B502AC002344F8043D72B60D4D284622
:106450002146FFF7E2FF019808B100F025FA019B01
:10646000002BF4D1084D28462146FFF7D6FF0198AE
:1064700008B100F019FA019B002BF4D162B603B009
:1064800030BD00BF440200204C02002037B502ACF2
:10649000002344F8043D72B6074D28462146FFF715
:1064A000BCFF019808B100F0FFF9019B002BF4D16B
:1064B00062B603B030BD00BF3C020020012070472F
:1064C0000020704773B500230193164B1B7813B35C
:1064D00072B6154801A9FFF7A0FF62B6019C134EE2
:1064E000BCB972B601A93046FFF797FF62B60198B2
:1064F000A0B14268082100F037FC054630B172B601
:10650000019906EBC400FFF791FF62B6284602B07E
:1065100070BD0124EBE76FF00805F7E76FF00105A8
:10652000F4E700BF380200204C02002044020020A3
:1065300013B50023CDE900330C4B1B7893B16A46A9
:10654000082101A800F062FC044640B9DDE90023FF
:106550005A6072B606480199FFF759FF62B62046A5
:1065600002B010BD6FF00804F9E700BF3802002048
:106570003C02002008B500F009FD083008BDFFFF0F
:10658000F7B51F4600230193431C022B0646154610
:10659000099C04D94FF0FF34204603B0F0BD002A17
:1065A000F8D0FFF7E7FF089B9842F3D1002CF1D019
:1065B0002044B842EED80D4B1B78A3B172B62346E7
:1065C00001AAA7F1080105F1080000F07FFC0446CC
:1065D00038B90748019B6B60294600EBC600FFF7FE
:1065E00016FF62B6D8E76FF00804D5E7380200203E
:1065F00044020020F7B51D4600230F461646089CAE
:106600000193F8B9F1B1EAB1E5B1DCB1124B1B78F5
:10661000DBB172B6114801A9FFF7FFFE62B601981F
:10662000B0B122464168083000F05EFC019B3B603F
:106630005B68083333600446FFF79CFF2860204600
:1066400003B0F0BD4FF0FF34F9E76FF00804F6E750
:106650006FF00104F3E700BF380200203C02002085
:1066600010B5044659B900F098FCA0420AD300F0D6
:106670008DFC0834044400F08BFC204410BD00F075
:1066800089FCF2E70020F9E72DE9F041174D2B785E
:106690000746884633BB1648FFF7B5FE1548FFF797
:1066A000B2FE1548FFF7AFFE00F08AF80446B0B915
:1066B000124E00F072FC2146FFF7D2FF3246022153
:1066C00000F018F9044650B9306800F077FC4146F4
:1066D000384600F02DFB044608B901232B702046F4
:1066E000BDE8F0816FF00B04F9E700BF380200202D
:1066F000440200204C0200203C0200202400002024
:1067000000F048BC00F049BC10B500F049FC04465C
:1067100018B9FFF795FEFFF7B9FE204610BD10B57A
:1067200000F03EFC044608B9FFF78AFE204610BD83
:10673000014B1868704700BF2400002038B50F4D8A
:106740002C78CCB100F040FC0446A8B9FFF778FEE5
:10675000FFF79CFE0A4B186800F034F900F0CCF902
:10676000044648B90748FFF767FE0748FFF764FE8D
:106770000648FFF761FE2C70204638BD3802002025
:1067800024000020440200204C0200203C02002093
:1067900070B50E1D154600217243044607F013F92B
:1067A00000231A461946FF209D4200D170BD61604A
:1067B000207002B15460224601333444F4E7FFFFF5
:1067C0002DE9F84303221E491E481F4E1F4DDFF8D6
:1067D0007080DFF8709000F081FA26F00306002741
:1067E0002C4659F8271058F827202E600B1D5343CC
:1067F000C5E90122E9602B6116B13046FFF7C8FFF9
:106800002B690137032F1E4405F11405E9D140F22D
:10681000D62200210E4807F0D6F80E4B0020186053
:106820000D4BE063C4E91000C4E912002065C4E91F
:106830001500C4E91700C3E90000BDE8F88300BFF4
:1068400034000020280000205F020020CC0200203D
:10685000300300200806002054020020F0B588B163
:1068600072B60F4D0F4E0023142755F82320904287
:10687000DCB208D807FB0362516821B1106830B957
:1068800062B60020F0BD0133032BEED1F8E7436878
:1068900013600139516000F8044B62B6F2E700BFA3
:1068A00028000020CC02002030B40346D8B113F8F1
:1068B000044C052CA0F1040004D10C4B5B6893B18F
:1068C00030BC1847042C0ED8FF21094A72B603F8D1
:1068D000041C14216143541855581D6063685050BE
:1068E0000133636062B630BC704700BF54020020C1
:1068F000CC020020034630482DE9F04120F003008F
:106900000D461746002A54D0002B52D0002950D0F3
:10691000D91C21F003010E1D6E4372B6274BDA6BB2
:106920001AB9DA6C8AB1964233D91A6D2AB9DA6C7F
:1069300010441A6E5AB3964239D962B64FF0FF34FA
:106940006FF009003C60BDE8F0810324DFF870803F
:10695000D8F80020C2F534720332B242EDD34FF0C2
:10696000140C0CFB04FC03EB0C0243F80C00C2E912
:106970000155C2E9031610B12A46FFF709FFD8F8FE
:1069800000301E44C8F8006062B60020DAE7042434
:10699000DCE70324142262439E189850C6E901558F
:1069A000F1600028F0D02A46FFF7F2FEECE704245D
:1069B000F0E74FF0FF30C6E733030020CC020020A1
:1069C00008060020C31E012B30B531D872B61A4B11
:1069D0000421142481421EDC0122142148431C1886
:1069E00000211950C4E90111E1608AB1D96B31B9B4
:1069F000DC6C24B11148D9640268121B0260196D65
:106A000031B91C6E24B10D4819660268121B026070
:106A100062B6002030BD04FB01F29D189A582AB9D5
:106A20002D69002DD9D10139C9B2D3E70022D4E7AD
:106A30004FF0FF30EEE700BFCC0200200806002038
:106A400010B5A2B198B191B172B60A4C236843B99E
:106A5000636833B9C4E9000162B6052118461160C4
:106A600010BD62B64FF0FF316FF00900F7E74FF04D
:106A7000FF30F5E754020020052806D172B6044B1A
:106A80000020C3E9000062B670474FF0FF30704746
:106A90005402002070B5044609B900200BE0052817
:106AA0000AD1134B1B68002BF7D0081D984700280C
:106AB000F3D000F8044B70BDC31E012BEDD8142396
:106AC0000C4D4343EE18EA58002AE6D0F2688A4299
:106AD000E3D372B672680AB1E85808B962B6DCE767
:106AE0004168E950013A726000F8044B62B6E2E78F
:106AF00054020020CC02002010B56F2200210C4867
:106B000006F061FF40F2D62200210A4806F05BFF42
:106B10000024094B09481C602146642206F053FFFB
:106B200008222146064806F04EFF204610BD00BF51
:106B30005C0200203003002008060020CC02002068
:106B40005402002038B5074C25686B1C05D100F0B5
:106B5000E1FC0028206003DA25606FF00B0038BDEF
:106B60000020FCE74000002001289DBF024B187068
:106B700000204FF0FF3070470C0600202DE9F74F42
:106B80000025884601958146002838D0B9B31F4FAB
:106B90003B68013336D0DFF878A0DFF878B02E46B6
:106BA0002C4601ABA8EB060209EB0601386800F0A1
:106BB000FBFCF0B9019B1BB916B99AF80020DAB1B9
:106BC0001E44B0450BD95D450DD8002000F042FAB7
:106BD000A31D05F10A0502D014F10C0F05D12046C2
:106BE00003B0BDE8F08F6FF00E0414F10F0FD8D191
:106BF000F5E76FF00B04F2E76FF00504EFE74FF0F5
:106C0000FF34ECE76FF00804E9E700BF4000002024
:106C10000C0600207F841E002DE9F74F00258846D2
:106C200001958146002838D0B9B31F4F3B68013326
:106C300036D0DFF878A0DFF878B02E462C4601ABCE
:106C4000A8EB060209EB0601386800F077FCF0B902
:106C5000019B1BB916B99AF80020DAB11E44B04561
:106C60000BD95D450DD8002000F0F4F9A31C05F107
:106C70000A0502D014F10C0F05D1204603B0BDE87F
:106C8000F08F6FF00D0414F10E0FD8D1F5E76FF00F
:106C90000B04F2E76FF00104EFE74FF0FF34ECE78D
:106CA0006FF00804E9E700BF400000200C06002058
:106CB0003F420F0010B5084C2068431C06D000F07E
:106CC00021FC28B94FF0FF33236010BD0020FCE702
:106CD0006FF00B00F9E700BF40000020F0B5B2FAFA
:106CE00082F35B0901EB8202ABB905460C1D01235F
:106CF0000EE02F4655F8046B7F68B74207D254E97F
:106D0000013744E901732B6845E901360023043457
:106D10009442EED1E8E7F0BD01440023884201D15E
:106D20001846704710F8012B13449BB2F6E7FFFF9B
:106D300010B5094C23785BB9FFF704FF38B9074B4E
:106D40001880074B1880074B18600123237010BD73
:106D50006FF00B00FBE700BF1406002018060020B0
:106D600016060020100600202DE9F7438046002873
:106D70003FD0052A3DD9234B1B78002B3CD045182A
:106D80002E88002E3BD0B31D934238D81E4F311DA4
:106D90003B886B8005EB0109284689B2FFF7BCFFF1
:106DA00002A9022221F8020D484606F001FE042144
:106DB0002846FFF7E3FE0446B8B90120FFF7D4FEEA
:106DC0003146281DFFF7DAFE044658B9022148462D
:106DD000FFF7D4FE044628B94046FFF765FD3B881F
:106DE00001333B800020FFF7BFFE204603B0BDE823
:106DF000F0834FF0FF34F8E76FF00804F5E76FF029
:106E00000604F2E714060020180600202DE9F347D7
:106E10000D469046814600284BD0002A49D0294B88
:106E20001B78002B48D004210DEB0100FFF7F4FE86
:106E3000044660BBBDF80460C6B3234B06F1060AE6
:106E400005EB0A011868FFF725FE0746B8B32A4686
:106E5000214606F0B8FD3D4404220DEB0201284610
:106E600006F0A6FD04350120FFF77EFE31462846D8
:106E7000FFF7D2FE78B90221A819FFF7CDFE04462C
:106E800048B9FFF771FEC9F80070C8F800A02046A5
:106E900002B0BDE8F0870020FFF766FE0023C9F8C6
:106EA00000303846C8F80030FFF7FEFC6FF00604EB
:106EB000EDE74FF0FF34EAE76FF00804E7E76FF023
:106EC0000904E4E7140600204400002010B540B196
:106ED0003AB133B19C1D8C4203D80380146000206A
:106EE00010BD4FF0FF30FBE72DE9F743002390463C
:106EF000ADF806300546002835D0002A33D00429E5
:106F000031D91F4B1B788BB307884088BB1D8B4240
:106F100086B22ED11B4B1C4A1C68BCB901211960DA
:106F20003E1D1080A91902220DF1060006F040FD59
:106F3000B1B22846FFF7F0FEBDF8069081451BD19F
:106F4000C8F80070204603B0BDE8F08313889E4265
:106F500006D901339E42D4BF00246FF00404DFE75A
:106F60006FF00304DCE74FF0FF34EBE76FF0080449
:106F7000E8E76FF00604E5E76FF00C04E2E700BF16
:106F8000140600201006002016060020042070477A
:106F9000022070474FF6FC707047FF207047FFFFDC
:106FA000034B00201880034B1880034B1860704778
:106FB000180600201606002010060020014B18605D
:106FC000704700BF4400002010B5074C207848B13E
:106FD000FFF770FE30B9054B20701880044B188005
:106FE000044B186010BD00BF1406002018060020D6
:106FF000160600201006002018B111B1002303600E
:107000000B607047FFF7F8BFEFF31080012383F3A5
:107010001088064B196819B9054AD1704021D17002
:107020001A6801321A6080F3108870472C1400200F
:10703000000D0440024A136801331360704700BF1B
:1070400054060020014801F0F9BA00BF3C0E0020B0
:10705000002070474FF47A71FDF7BAB90121FDF7AE
:10706000B7B9FFFF30B5164B164C196A164B87B0EF
:10707000012203930323CDE901230025134B04953B
:107080001B68C1F302608340C1F30221CB4020465C
:107090004FF4FA51B3FBF1F3294600932B4600F06D
:1070A00025FF2A460821204601F060F8204600F01E
:1070B000C7FF204607B0BDE8304000F0E8BF00BF82
:1070C00000E001401C060020357000000013002085
:1070D0001C4A92F91E30002B30B50DDB59090120F6
:1070E00003F01F0300FA03F32031174840F8213062
:1070F000BFF34F8FBFF36F8F144B15491D680B887B
:107100009CB20B7A9B0604D51369B4EB530F88BF6E
:10711000013592F91E10002908DB0123480901F00E
:107120001F0103FA01F1084B43F820101269531EA6
:107130001B1B4FF47A704343B3FBF2F300FB0530A3
:1071400030BD00BF1C06002000E100E05406002016
:1071500000400840164A38B50023938072B615499E
:10716000154A164C0A601859D0500433402BFAD1F6
:10717000134D002302F140005C59C4500433802BAE
:10718000FAD1104B9A60BFF34F8F62B60B680E4A6C
:10719000DA600E490E4A0F4800F05AFBFFF734FF41
:1071A00000F0C4FA01F0B4FBBDE83840FFF75ABF65
:1071B000000D004058060020007F00200040000025
:1071C0004040000000ED00E0C977000055EE0000EF
:1071D00048EE000058EE000008B5FFF7BBFF40F294
:1071E00013424FF416510020BDE8084000F00EB8DD
:1071F0007047FFFF014800F06FBE00BF1C06002073
:10720000014800F097BF00BF1C060020164B10B4C9
:1072100000241C60082815D8DFE800F0050D1217BF
:10722000191B1D1F210001201860104892B25DF843
:10723000044B01F02FB90220186092B20C48F6E717
:1072400004221A605DF8044B70470822F9E7102207
:10725000F7E72022F5E74022F3E780221A601A6858
:1072600042F48072EDE700BF5C0600203C0E002077
:107270008809002008B53C220021024806F0A3FB43
:1072800008BD00BF6006002070B50024064D2646EC
:1072900055F8240020B12C2102F00AFC45F82460A6
:1072A00001340F2CF4D170BD600600200028A8BF67
:1072B00000F160404FEA0111AEBF00F5614000F0FF
:1072C0000F00034BC9B2ACBF80F8001319547047CC
:1072D00014ED00E00138B0F1807F0AD2064B074A76
:1072E0005860F02182F823100020072298601A606D
:1072F00070470120704700BF10E000E000ED00E0A3
:1073000080B500AFBFF34F8FBFF36F8F0D4B1A687F
:107310000D4B1B689A4202D30A4B00221A60094B9C
:107320001B685A1C07490A60002B0CBF012300236D
:10733000DBB2002B03D072B600F042F962B600BF98
:1073400080BD00BF9C060020A006002080B400AFD6
:10735000054B5B68044A43F08053536000BFBD4651
:107360005DF8047B704700BF00ED00E080B500AF22
:1073700009494FF0FF3000F015F8FF216FF00400CD
:10738000FFF794FFFF216FF00100FFF78FFF034A23
:10739000034B1A6000BF80BD003E4900017300002E
:1073A000A406002080B584B000AF03463960FB71AD
:1073B0003B68FB60FB68B3F1807F18D3FB6807EE86
:1073C000903AB8EE677ADFED106AC7EE267AFCEEE7
:1073D000E77A17EE903A01330C4A13600B4B1B68A7
:1073E000FA68B2FBF3F31846FFF774FF05E0074BAA
:1073F00000221A60F868FFF76DFF054B00221A6043
:1074000000BF1037BD4680BDFFFF7F4BA0060020A8
:107410009C06002080B483B000AF0023FB7172B6DD
:10742000FB7918460C37BD465DF8047B704780B485
:1074300000AF62B600BFBD465DF8047B704780B404
:1074400083B000AF0023FB710123FB71FB79184669
:107450000C37BD465DF8047B7047FFFFEFF30080FB
:1074600001B5EFF3118003B41EF0100F08BFB0EEAA
:10747000400A0A48006803B488B004A006904FF0A0
:10748000807007906FF006008646704703BC804707
:10749000BFF36F8F00DFFEE700BF0000A4060020EF
:1074A0001EF0100F08BFB0EE400A1EF0040F0CBF14
:1074B000EFF30880EFF30980816911F8020C10B135
:1074C00001280DD00BE01EF0100F0CBF1AB008B051
:1074D00003BC80F3118803BC80F300880847FEE7F3
:1074E0004EF61451CEF200010A6842F001020A6021
:1074F0007047F4E700BF00BF014B00221A707047CD
:10750000A806002008B54FF47A70FFF7A3FD00200D
:1075100008BDFFFF10B540F213424FF4E1310020E7
:10752000FFF774FE044C044801F0B0F818B120468F
:1075300000F0CCFEF7E710BD3C0E00202DE9F8432B
:107540001C460023236016480D46164601F09EF89F
:1075500010B3144FDFF848904FF001083B7873B137
:107560000F4F2368B34217D2384600F0AFFE431CDA
:10757000F7D005F8010B236801332360F1E7484693
:1075800000F0A4FE0228E9D187F8008005F8010B7D
:10759000236801332360E1E70020BDE8F88300BFE2
:1075A0003C0E0020A806002038B51D4614460348AE
:1075B00012B202F03FFA2C60002038BD3C0E0020D1
:1075C00038B5114C25786B1C2DED028B237035B12D
:1075D0000E4B257001221A60BDEC028B38BDFFF7FF
:1075E00026FF0B4B1B6893ED088BFDF7F9F8B0EE07
:1075F000480AF0EE680A2846FDF780F8FFF70AFF10
:107600002378013B2370E7E7B0060020AC0600209A
:1076100038ED00002DE9F843DFF804813E4E3F4F7E
:107620000025357088F80050FFF7D6FD3C682946E4
:1076300025602846FCF7C6FF454688BBFDF728F9BC
:1076400072B662B604F138016068FCF7BDFF48B954
:107650004FF0FF30FDF706F8FDF7B4F810B1012345
:1076600084F8403072B6FFF781FEFDF7B1F8C8B17B
:107670000023DBB22B70FFF7DAFEFDF739FD5FFA6E
:1076800080F862B6DFF89C902B7803F0FF04A3B972
:10769000FDF75AF9FDF780F8FFF7AAFD72B620460C
:1076A000BDE8F883FDF78EF80028E1D13B6893F838
:1076B0004030B3FA83F35B09DBE7FDF769F8FDF7C8
:1076C00087F8F0B10123DBB233703378B3FA83F378
:1076D0005B092B7033782BB1D9F8003023F001030C
:1076E000C9F80030B8F1010F04D1FDF701FD08B968
:1076F000FFF702FFFDF7FCFC5FFA80F8FFF79FFE43
:10770000C2E7FDF75FF80028DCD13B6893F8403012
:10771000003318BF0123D6E7E913002038ED00003D
:10772000E813002010E000E07047FFFF37B5FFF7D7
:10773000FBFF01210D2001F0F3F900210D2001F0E4
:1077400007FA68460722032102F0FCF8BDF8003072
:107750001C4CC3F384130125684607220521E55418
:1077600002F0F0F8BDF80030C3F384136846072236
:107770000621E55402F0E6F8BDF80030C3F38413A7
:10778000684607220921E55402F0DCF8BDF8003014
:10779000C3F38413684607220A21E55402F0D2F8A5
:1077A000BDF80030C3F3841307220B216846E5546B
:1077B00002F0C8F8BDF80030C3F38413E55403B0F9
:1077C00030BD00BFAE0700207046694600F04CF99E
:1077D000FEE7FFFFF8B5184B1B7805461446461820
:1077E0004BB11146154806F09FF9154806F09CF973
:1077F000AC4212D22C461348134D114F06F094F9A7
:107800000F4806F091F9B4420BD3104806F08CF9FA
:107810000B48BDE8F84006F087B9B44228BF3446AB
:10782000E9E722682146284606F07EF9384606F048
:107830007BF90434E7E700BFA40700200CF8000040
:1078400031F8000034F8000059F8000099F1000008
:1078500008B50F4B0F4918600F4B1A600F4B104AB9
:107860001A60104B9B1A104A1360104A1160104A9C
:10787000521A10490A603BB90F4806F055F90F48F3
:10788000BDE8084006F050B90D4B01221A7008BD42
:107890004C07002000400000A807002058070020E7
:1078A000007B0020007F00205407002048070020B4
:1078B00054FA000044070020AAF7000031F8000045
:1078C0005007002008B5064B06481A68064B196891
:1078D00006F02AF90548BDE8084006F025B900BFC2
:1078E000A807002087F700004C07002031F80000AF
:1078F000304B2DE9F04F1C682F4BD3F800E02F4B95
:107900001D782F4B1E782F4B1F682F4B1B688B4603
:1079100007EB030CDDB1CEB92C4B99695B690160B3
:10792000013BBB4215D3634513D8BBF1010F10D9FE
:1079300043600223A64426B1944203D8724528BF6F
:10794000724614460437DFF888802EE000252B4667
:10795000F0E735460123EDE72268D10724D5561E0E
:10796000B74221D866451FD80F2B1DD832F8059C89
:1079700032F8032C02EA080ABAF5784F04D109EA72
:107980000809B9F5704F04D002F47F42B2F58E4F6A
:107990000AD15B4508D2022B03D115B14268B2422D
:1079A00002D040F82360013304347445D4D3184620
:1079B000BDE8F08F58070020540700205C07002026
:1079C000A40700204807002044070020600700208B
:1079D00000F8FFFF2DE9F04391B00446402200215A
:1079E000684605F0F0FF224610216846FFF780FF49
:1079F000164FDFF87080064600244FF02009B4428D
:107A000013D1FCB1114B12491248096804EBC404AC
:107A10001C44002204F8012C0F4A06F085F80F4898
:107A200006F082F811B0BDE8F08304EBC4053D44D4
:107A30005DF824204146284606F0E2F8013485F836
:107A40000890DCE7064806F06FF8E8E7B10600208A
:107A50004C0700207FF800007AF8000031F80000A1
:107A6000BCF8000074F800002DE9F0410D4B1B78C4
:107A700086B006460D4643B90B4A0C490C4806F041
:107A800053F80C4806F050F8FEE70B4B1A78BAB1E1
:107A9000054A0A49064806F047F8064806F044F841
:107AA000FEE700BF50070020A0F00000B3F0000088
:107AB000BBF0000031F800005C070020D9F00000A6
:107AC000A64AA7481468A74AA74FD2F80080012207
:107AD0001A7006F029F8A54806F026F8FFF7F2FE1E
:107AE000A34806F021F8A14806F01EF8F6064CBFA0
:107AF00005F1200605F16806B44203D804EB08033B
:107B0000B34201D201233B70204632464146FFF783
:107B100061FE3B78974C002B3DD1974806F004F866
:107B2000924806F001F82F6927616F692A686B682F
:107B3000A968E8686761AF69ED6922606360A16068
:107B4000E060A761E56104908C48CDE902108C49A2
:107B50008C48CDE900318C4B8C4905F0E5FF83481A
:107B600005F0E2FFE3690493894B0393A369029351
:107B7000884B0193636900932269874B8749814849
:107B800005F0D2FF794805F0CFFF854805F0CCFF1E
:107B9000764805F0C9FF834B834A1B682362834BF9
:107BA0001B7884F82430824B1B68A362814B1B78BE
:107BB00084F82C30804B1B682363804B1B88A38682
:107BC0007F4B1B681288E2637E4AA363128822649B
:107BD0009D0705D57C4805F0A7FF644805F0A4FF84
:107BE00094F83B30580640F1278194F82430002B5C
:107BF0003CD0D90705D5754805F096FF5B4805F0E0
:107C000093FF94F824309A0705D5714805F08CFF4E
:107C1000564805F089FF94F824301B0705D56D48B8
:107C200005F082FF514805F07FFF94F82430DF060D
:107C300005D5694805F078FF4C4805F075FF94F8C4
:107C400024309D0605D5654805F06EFF474805F0D0
:107C50006BFF94F82430180608D5990706D0A16A5E
:107C60005F4805F061FF414805F05EFF94F82C3055
:107C7000002B46D0DA0705D55A4805F055FF3B489A
:107C800005F052FF94F82C309B0705D5564805F0B7
:107C90004BFF364805F048FF94F82C305F0705D5B8
:107CA000524805F041FF314805F03EFF94F82C3072
:107CB0001D0705D54E4805F037FF2C4805F034FF69
:107CC00094F82C30D80605D54A4805F02DFF2748F2
:107CD00005F02AFF94F82C30990605D5464805F0A2
:107CE00023FF224805F020FF94F82C301A0608D50F
:107CF0009F0706D5216B414805F016FF1B4805F08C
:107D000013FFA38E002B00F0978094F83430DD072A
:107D100005D53B4805F008FF144805F005FF94F829
:107D20003430980705D5374805F0FEFE0F4805F0BA
:107D3000FBFE94F83430590705D5334805F0F4FEBE
:107D40000A4805F0F1FE94F834301A0760D52F4840
:107D500005F0EAFE054805F0E7FE59E05807002067
:107D600032F8000054070020A407002031F800007A
:107D7000E3F000006007002017F10000E1F80000C8
:107D8000E5F8000056F10000D9F80000DDF8000029
:107D9000F1F80000F5F80000E9F80000EDF8000047
:107DA0007FF1000024ED00E030ED00E028ED00E080
:107DB00034ED00E029ED00E038ED00E02AED00E0D0
:107DC0002CED00E03CED00E0BEF10000EAF1000027
:107DD0002CF2000067F200009DF20000D1F20000DA
:107DE0001DF3000052F3000086F30000BBF3000017
:107DF000F2F300001AF4000040F400007EF40000EA
:107E0000A5F40000EBF4000037F5000096F5000043
:107E100094F83530DB0705D5274805F085FE27485F
:107E200005F082FE94F835309F0705D5244805F00B
:107E30007BFE224805F078FE94F93B30002B34DAC3
:107E4000E36B002B31D094F83C30DD0705D51D489D
:107E500005F06AFE194805F067FE94F83C30980773
:107E600005D5194805F060FE144805F05DFE94F84C
:107E70003C30590705D5154805F056FE0F4805F06A
:107E800053FE94F83C301A0705D5114805F04CFE16
:107E90000A4805F049FE94F83C30DB0605D50D484C
:107EA00005F042FE054805F03FFE304606B0BDE84D
:107EB000F041FFF78FBD00BFDDF5000031F8000095
:107EC0002FF6000099F60000C9F60000FCF600004D
:107ED00028F7000057F7000000220270C0E90122D5
:107EE00080F83520DF2282777047FFFF2DE9F047C9
:107EF000044600261F469DF828300670217303753E
:107F0000089B0361099B83610B9B03620C9BDFF859
:107F10002C81C0E90936FF23894643771546002A9C
:107F20003ED184F83520502001F09AFD4FF6FF73C2
:107F3000A0F8423000F1200ADF2380F8205080F8BA
:107F4000215080F8225080F82350C0E90955C562BD
:107F5000C0E90E55C0E90C5580F8443080F8453032
:107F600080F8405080F84150C0E91255C4F828A06C
:107F700020222946064605F026FD072FA66050D888
:107F80002C4AB9F1020FD35D114638D098F80000A1
:107F900000284CD1002B44D102232777D3553EE053
:107FA000012A3ED184F83520242001F059FD837840
:107FB000067066F3020383704378C57003F0F8031C
:107FC00066F30613012F4370067146718671A06235
:107FD000606026D8184BB9F1020FDA5D194602D05D
:107FE00098F8000028B1012A1BD802232777CB5527
:107FF00015E0B2B90222DA552777257011E0012B7E
:10800000F3D92777384600F005FD3022816A5046C3
:1080100005F0CEFC384600F0FDFC036BA3610123A4
:108020002370002388F800302078BDE8F087012B0A
:10803000DAE700BFAE070020AC070020B60700203B
:1080400038B590F8353004468BB9806808B90020FF
:1080500038BD04F10C0104F0FFFB0546A06804F0F4
:1080600023FB0E2D01D0002DF1D10120F0E7012BD3
:10807000EDD140680028EAD004F10C01083004F08A
:108080006FFF05466068083005F01CF8E9E708B5A1
:1080900090F835303BB9806820B104F0FFFAB0FAAF
:1080A00080F0400908BD012B06D140680028F9D0B6
:1080B000083004F0E5FFF2E70020F3E708B590F898
:1080C00035303BB9806820B104F06AFBB0FA80F02B
:1080D000400908BD012B06D140680028F9D00830BE
:1080E00004F0FAFFF2E70020F3E7FFFF38B504469B
:1080F000FFF7E4FF606838B1237F0C4A0025242194
:10810000D55401F0D5FC6560A56875B1237F084A98
:10811000A86C0021D15410B1202101F0C9FC5021DC
:10812000284601F0C5FC0023A36038BDAC07002041
:10813000AE07002010B50446FFF7D8FF204610BD5B
:1081400001F10C0303608B6803B1203343604B687B
:1081500083607047836823B11868003018BF01201E
:10816000704740680028FBD08068F6E7F0B585B01E
:1081700004460F46014601A81546FFF7E1FF2046D9
:10818000FFF7E8FF064610B12046FFF797FF00F023
:1081900039FD2A4601A900F001FE054650B1677776
:1081A0002EB12046FFF74CFF2046FFF770FF284610
:1081B00005B0F0BDDF23A377F2E700207047012070
:1081C0007047036840F213421B6A1847D0F82C32FC
:1081D0002BB1D0F82832184490F8240070474FF0A3
:1081E000FF30704713B5044690F8A8048DF80710C7
:1081F00070B1002384F83C3401220DF1070104F52D
:10820000886002F03BFC94F83C34002BFBD001204A
:1082100002B010BD0023C0F82432C0F82832C0F8E4
:108220002C32C0F83034C0F83434C0F8383400F59B
:10823000886002F0A3BC036813B962B6BFF36F8F06
:108240007047FFFF0268204B53F8223013B54BB143
:108250000279042A08D0802A01D0022A02D1012200
:1082600083F83C2402B010BDD3F82C22B2F5007F75
:10827000F8D0007AEFF3108200920122019272B6D8
:10828000019A013A511C1AD0D3F82C12B1F5007F93
:1082900002F1FF3411D0D3F82412194481F82400DC
:1082A000D3F824120131C1F30801C3F82412D3F822
:1082B0002C120131C3F82C12E3E72246E2E76846AC
:1082C0000192FFF7B8FFCDE7B807002013B5EFF331
:1082D000108300930123019372B6019B5A1E0192F1
:1082E000E3B1D0F82C32B3B1D0F82832034493F87C
:1082F0002440D0F828320133C3F30803C0F82832F1
:10830000D0F82C32013BC0F82C326846FFF793FFBF
:10831000204602B010BD4FF0FF34F6E76846FFF785
:108320008AFF4FF0FF34F3E738B5044600254FF4D9
:108330007A70C4E90150A3611648049BE361C4E963
:108340000412206029464FF4007204F1240005F065
:108350003AFBC4F824524FF40072C4F8285229465C
:10836000C4F82C5204F50C7005F02DFBDF23C4F883
:10837000305484F8A854C4F8345484F87734C4F8DA
:10838000385484F8793484F8753484F87B34204682
:1083900038BD00BF24F9000010B50C4600F032FCD7
:1083A00022460421BDE8104000F026BEF0B5036966
:1083B000002B85B0044602DA002005B0F0BD42690A
:1083C000002AF9DB8B42F7DA8A42F5DAD9B20022C9
:1083D000684602AE01F0B6FA0122217D304601F076
:1083E000B1FA00223DF812500021AB11002D45D00A
:1083F00036F81200002841D036F8110083EA9017B1
:10840000FF063BD103F01F0323620028D4D0092BC1
:10841000D2DC15F4F04F23691C4E0CBF4FF0806284
:108420004FF0A06236F8331010F4F04F42F480326F
:1084300017480CBF4FF080654FF0A06503F0B6FB06
:108440006369134836F8331045F480352A4603F043
:10845000ADFBA3695A1C0FD0E26901320CD036F88B
:1084600033100B482A4603F0A1FBE369084836F8AD
:1084700033102A4603F09AFB01209EE701310329BD
:10848000B4D10132032AADD196E700BF64EF0000FA
:10849000EC130020664B2DE9F0410E461968C9081F
:1084A00004461546FFF782FF84F8A804002800F070
:1084B000BD8094F891145F4B226A6FF3010184F838
:1084C0009114192143F82240A4F8921494F890349E
:1084D000012184F895140F2103F0E70384F89C141C
:1084E0004FF6FF7143F04003A4F89E14A1696FF3A7
:1084F000820384F8903404F592670023013184F8F4
:10850000943484F89634C4F8987484F8A03405D070
:10851000E16901311CBF082184F8A01484F870249B
:1085200004F29442C4F88C2440F213424FF6FF71D7
:10853000954284F8A23484F8A334A4F8A414C4F8AF
:108540008834C4F88034C4F87C343ED02DD840F24E
:108550001142954248D040F2124295424AD0364BE1
:10856000C4F8843404F58E6841462046FFF714FFB2
:1085700094F8A834184084F8A80401213B4640F63A
:10858000B832304602F0A6FD94F8931429B93B4660
:1085900040F6B832304602F09DFD04F5886541464C
:1085A000284602F053FB78B3FEE740F23242954290
:1085B00025D040F2334295420FD040F231439D42E4
:1085C000CDD1022384F871340AE0022284F87124A8
:1085D00084F8723484F87334C1E7022284F8712479
:1085E00084F872340123F5E7022284F8712484F8B8
:1085F0007224EFE7022284F871240322F7E70223B2
:1086000084F871340323EBE73946284602F074FA04
:1086100000B1FEE7C4F82402C4F82802C4F82C0212
:10862000C4F83004C4F83404C4F83804BDE8F08158
:108630009CF00000B80700204582000030B58C187F
:10864000A14208D0D0F8603411F8015BDD701D79CB
:108650006D07FCD5F4E7104630BD13B5EFF310837A
:1086600000930123019372B6019B5A1E01923BB104
:10867000D0F808426846FFF7DEFD204602B010BD84
:108680006846FFF7D8FD4FF0FF34F6E708B5243011
:10869000FFF7E3FF08BD10B500F50C742046FFF7A7
:1086A000DCFF0028FAD110BDF8B5094F05460024BB
:1086B0000126AA6C06FA04F3134205D007EB440224
:1086C00061B2284604F08EFD01341D2CF1D1F8BDB5
:1086D000EC070020837870B5044683B90E4D2A68F4
:1086E000AAB103883BB90D48FFF7DEFF2B6820785D
:1086F000BDE870401847012BF8D10948F4E7012B79
:1087000005D00A2B04D1074B1B68002BEFD170BD9D
:108710000B2BFCD1044BF7E7E007002028080020D2
:1087200084080020E4070020E8070020F0B5044694
:1087300085B0002843D0002380F83230C1F384157F
:10874000836C012707FA05F21343836400F13001BB
:1087500004F094FE04AE04F14801204604F04AFD02
:10876000204604F031FD06F8047D9DF80C30012B05
:1087700004D13146204604F02DFDF6E70DF10E023E
:108780002946204604F02EFD0E4BBDF80E0093F84E
:108790003330052B9CBF0C4AD2560C4B1B684FF054
:1087A000010101FA03F388BF00220093002301FABC
:1087B00002F2194601F034F980B205B0F0BD4FF075
:1087C000FF30FAE72808002050F900004800002098
:1087D00013B50A220C46C1B2684601F0B3F8BDF8E1
:1087E00000205AB1064B074902F4F040B0F5006F83
:1087F0000CBF18460846228002B010BD1046FAE7AA
:108800008408002028080020F0B5012680F82560A3
:10881000C0E90F23022600F12403002540F60C478F
:1088200080F826600186DF26032143644FF4C0539D
:1088300080F8245080F8275080F8285080F829507C
:1088400080F82A6080F82B60878580F8325080F8A5
:10885000331080F8345080F8355080F8366080F856
:1088600037600787C0E91255C0E91455A0F8585081
:10887000A0F85A30F0BD10B50446406D10B1142177
:1088800001F016F9204610BD37B50D28044602A99F
:1088900098BF0E34002321F8023D2046FFF798FFD1
:1088A000074B05464FF4004133F8340000F0FCFF5D
:1088B000BDF806102846FFF739FF03B030BD00BFF2
:1088C00064EF0000042838B598BF0E4B0E4C94BFDF
:1088D0001D5C0025204604F099FD04F1300184F868
:1088E00028502046094C04F0C9FD204604F08EFDB6
:1088F00084F8285004F130012046BDE8384004F0E7
:10890000BDBD00BF56F900002808002084080020E3
:108910002DE9F04D3A4B93F82830192B2DED028BB1
:1089200066D055D8012B60D0364CD4ED007AF5EEE8
:10893000407AF1EE10FA48D10020FFF7C3FF05207E
:10894000FEF78CFB0FF2B00BDBE900AB9FED2E8A3C
:10895000DFF8BC800A251420FFF796FF07EE900A87
:10896000F8EEE77A67EE887A17EE900A01F008FAD7
:1089700052465B4601F05CFAD8F80030064601200A
:1089800098400F4601F0EAF902460B463046394658
:1089900001F078FB064620680F4601F0F1F9024627
:1089A0000B463046394601F08DF801F011FD013DCE
:1089B00007EE900A2060CED1F2EE046A87EEA67A26
:1089C000052084ED007AFFF77DFF94ED000A08E0B2
:1089D0001D2B04D01F2BA7D1B0EE040A01E0B0EE8E
:1089E000000ABDEC028BBDE8F08D9FED080AF8E7A8
:1089F000B7EE080AF5E700BF295C8FC2F5A8204052
:108A000028080020E00800203D0AB73F0000C07F92
:108A10004800002030B5094B53F8144B00218C421C
:108A200007D053F8042F92F82450A84202D0013105
:108A3000F5E7002202F1080030BD00BFE408002085
:108A400038B50E4C0E4D0F48002322461946FFF74D
:108A5000DBFE002301210C48FFF7D6FE2846002448
:108A6000214640F8044B142204F0ADFF5022214669
:108A700005F1180004F0A7FF38BD00BFD58600003F
:108A8000E4080020280800208408002008B50448D5
:108A9000FFF7F1FE0348BDE80840FFF7ECBE00BF5A
:108AA000840800202808002073B50025044680F8BB
:108AB00030500D2268460E4600F044FFBDF80030ED
:108AC0006363C3F3841203F4F043B3F5006F84F8D7
:108AD00038602574E5746574A574657522750CD0CD
:108AE00004F11003A361064BE361064B2362064BBE
:108AF0006362064BA362064BE362204602B070BD80
:108B000039CB000029CC0000B9CB0000C5CB000058
:108B1000F5CB00000E210148FFF7C6BF4C0900202D
:108B2000042911D8DFE801F0030C0A030E0000222B
:108B3000064B33F83010002003F038B81022F7E766
:108B40000422F5E78422F3E7704700BF64EF0000DA
:108B5000044B0A1C18BF012233F83010002002F029
:108B6000CBBF00BF64EF000007B54FF0FF330093A9
:108B7000002201210248FFF7D7FB03B05DF804FB98
:108B80008809002000F1C0020A4B53F822106FF34D
:108B9000104143F8221000F01F024009800000F14C
:108BA000604000F5614001239340C0F880310360CC
:108BB000704700BF006000404309012200F01F0021
:108BC00002FA00F02033044A42F82300BFF34F8F2B
:108BD000BFF36F8F704700BF00E100E07047FFFFF9
:108BE0000028A7BF00F1604000F5614000F00F00D1
:108BF000034BABBFC023C02280F800331A54704728
:108C000014ED00E038B50A4D2B78BFF35B8F13F0FD
:108C100001040BD1284600F034FF38B1054B28463B
:108C20001C6000F03AFF0448FEF712FA014838BD14
:108C3000340E0020380E0020DD8B00002AB9304BA6
:108C4000C031012243F821207047012A03D1C031ED
:108C50002B4B0222F6E7022A03D1C031284B032214
:108C6000F0E7032A03D1C031254B0422EAE7042AA6
:108C700003D1C031224B0522E4E7052A03D1C031DC
:108C80001F4B0622DEE7062A03D1C0311C4B072208
:108C9000D8E7072A03D1C031194B0822D2E7082AA6
:108CA00003D1C031164B0922CCE7092A03D1C031C8
:108CB000134B0A22C6E70A2A03D1C031104B0B22FC
:108CC000C0E70B2A03D1C0310D4B0C22BAE70C2AA6
:108CD00003D1C0310A4B0D22B4E70D2A03D1C031B4
:108CE000074B0E22AEE70E2A03D1C031044B0F22F0
:108CF000A8E70F2AA8D1C031014B1022A2E700BF7C
:108D00000060004032B91A4BC0315D2243F8212087
:108D100001207047012A05D1C031154B652043F869
:108D20002100F5E7022A03D1C031114B6D22EDE796
:108D3000032A03D1C0310E4B7522E7E7042A03D181
:108D4000C0310B4B7D22E1E7052A03D1C031084B2E
:108D50008522DBE7062A03D1C031054B8D22D5E7FA
:108D6000072A03D1C031024B9522CFE7002070477C
:108D70000060004032B9C031074B1E2243F8212069
:108D800001207047012A05D1C031034B212043F84F
:108D90002100F5E70020704700600040F8B51B4B4C
:108DA0009E680B68174693F91220213205460C463F
:108DB00001D00120F8BD4A6840368AB11A7C0168AA
:108DC000FFF7A0FF0028F4D02268082353742B6813
:108DD0009374AFB90E4A46F8232001332B60E9E7BC
:108DE0008A6882B11A7C0168FFF7C4FF0028E0D0CE
:108DF0002268082353742B6893740FB9054AEAE775
:108E000046F82370E9E71046D4E700BF00ED00E024
:108E1000C5CA000041D100002AB9064BC031362234
:108E200043F821207047012AFCD1C031014B3B227D
:108E3000F6E700BF006000402AB9064BC03135227A
:108E400043F821207047012AFCD1C031014B3A225E
:108E5000F6E700BF006000402AB9064BC031372258
:108E600043F821207047012AFCD1C031014B3C223C
:108E7000F6E700BF006000402AB9064BC031382237
:108E800043F821207047012AFCD1C031014B3D221B
:108E9000F6E700BF006000402AB90C4BC0319922B0
:108EA00043F821207047012A03D1C031074B9F228C
:108EB000F6E7022A03D1C031044BA422F0E7092AC5
:108EC000F0D1C031014BA922EAE700BF00600040A9
:108ED0002AB90C4BC031982243F821207047012A4F
:108EE00003D1C031074B9E22F6E7022A03D1C031DD
:108EF000044BA322F0E7092AF0D1C031014BA8228C
:108F0000EAE700BF006000402AB90C4BC0319A224A
:108F100043F821207047012A03D1C031074BA0221A
:108F2000F6E7022A03D1C031044BA522F0E7092A53
:108F3000F0D1C031014BAA22EAE700BF0060004037
:108F40002AB90C4BC0319B2243F821207047012ADB
:108F500003D1C031074BA122F6E7022A03D1C03169
:108F6000044BA622F0E7092AF0D1C031014BAB2215
:108F7000EAE700BF006000402AB9064BC031AE22CC
:108F800043F821207047012AFCD1C031014BB322A4
:108F9000F6E700BF006000402AB9064BC031AD22A1
:108FA00043F821207047012AFCD1C031014BB22285
:108FB000F6E700BF006000402AB9064BC031B1227D
:108FC00043F821207047012AFCD1C031014BB62261
:108FD000F6E700BF006000402AB9064BC031B0225E
:108FE00043F821207047012AFCD1C031014BB52242
:108FF000F6E700BF006000402DE9F84FAD4B9E68DA
:1090000005461446403672B6012940F08E80002A8B
:1090100000F098809368213340F0858003681268DF
:109020001A441F2A00F213846268DFF8A48246F80B
:109030002320C033332248F8232090F90000FFF7A3
:10904000BBFD95F90030C03358F823206FF3104270
:1090500048F8232095F90000FFF7C2FD95F90000BC
:10906000FFF790FD2B686168A3605A1CC1332A602A
:1090700046F82210342248F8232095F90000FFF723
:109080009BFD95F90030C03358F823206FF3104250
:1090900048F8232095F90000FFF7A2FD95F900009C
:1090A000FFF770FD2B6861685A1CC1332A6046F8CF
:1090B0002210312248F8232095F90000FFF77CFDAB
:1090C00095F90030C03358F823206FF3104248F868
:1090D000232095F90000FFF783FD95F90000FFF7C5
:1090E00051FD2B6861685A1CC1332A6046F8221072
:1090F000322248F8232095F90000FFF75DFD95F92D
:109100000030C03358F823206FF3104248F8232072
:1091100095F90000FFF764FD95F90000FFF732FDB7
:109120002B6801332B6001240CE002290ED14AB1D7
:1091300093682133F7D10068146804441F2C8CBF56
:109140000024012462B62046BDE8F88F032910D11F
:10915000002AF7D092F912302133E4D10E23537450
:109160000168554B917446F82130127CFFF702FEDE
:10917000D6E7042944D1002AE4D092F907302133FC
:109180002DD10C27977101684C4BD17146F82130D5
:109190001278FFF781FE0168494B0131016061726D
:1091A000277246F821302278FFF7AEFE0168454B62
:1091B000013101606171277146F821302278FFF793
:1091C00087FE0168404B01310160A772E17246F8E9
:1091D00021302278FFF7B4FE03680133036094F96D
:1091E0000700FFF7CFFC94F90900FFF7CBFC94F9D7
:1091F0000500FFF7C7FC94F90B00FFF7C3FC92E7EB
:10920000002940F09480002A9CD0137A3BBB12685E
:1092100092F90D3021331ED10C231373036853735D
:109220002A4A46F82320C033294A262142F823102F
:109230002368606893F90D101B7B01F160421B01EC
:1092400002F56142DBB282F80033224B43F8210081
:109250002B6801332B60236893F90D00CDE7012BB8
:109260003AD1126892F90F3021331ED10C23937337
:109270000368D373154A46F82320C033144A2721C4
:1092800042F823102368606893F90F109B7B01F16B
:1092900060421B0102F56142DBB282F800330D4BE4
:1092A00043F821002B6801332B60236893F90F00EA
:1092B000A3E700BF00ED00E041D1000081B2000053
:1092C000DDB4000061B300001DB5000065BA000008
:1092D0000060004044130020022B40F0B882126866
:1092E00092F9113021331ED10C2313740368537487
:1092F000984A46F82320C033974A282142F8231081
:109300002368606893F911101B7C01F160421B0116
:1093100002F56142DBB282F80033904B43F8210042
:109320002B6801332B60236893F9110065E7052949
:1093300064D1002A3FF406AF576892F808A00C23C6
:109340007B7397F90F30213349D10168844BF9734E
:10935000524646F82130FFF75FFD824C90F900300D
:10936000DFF8F881E2184FF0C00982F80093016835
:1093700048F8237001317C4B01605246B97346F8BE
:109380002130FFF759FD90F90030E21882F8009380
:10939000016848F823700131744B016052463974FA
:1093A00046F82130FFF758FD90F90030E21882F8B6
:1093B0000093016848F8237001316D4B01605246FB
:1093C000797446F82130FFF757FD90F900301C44BE
:1093D00084F8009348F8237003680133036097F919
:1093E0000F00FFF7CFFB97F90E00FFF7CBFB97F9C4
:1093F0001000FFF7C7FB97F91100FEE606294FD1D1
:10940000002A3FF49FAE576892F808A00C237B73A4
:1094100097F90F30213338D10168564BF973524612
:1094200046F82130FFF738FD4E4C90F90030DFF858
:109430002C81E2184FF0C00982F80093016848F8C7
:10944000237001314C4B01605246B97346F821300C
:10945000FFF73EFD90F90030E21882F800930168B2
:1094600048F823700131454B01605246397446F883
:109470002130FFF749FD90F900301C4484F8009337
:1094800048F8237003680133036097F90F00FFF772
:1094900079FB97F90E00FFF775FB97F91000ACE622
:1094A000072941D1002A3FF44DAE40F60C43138208
:1094B00092F90D30213328D10168314B517346F8B0
:1094C00021301278FFF7A8FC01682E4B01310160B2
:1094D000217346F821302278FFF7AEFC01682A4B51
:1094E00001310160A17346F821302278FFF7B4FC06
:1094F0000168264B01310160E17346F82130227882
:10950000FFF7BAFC03680133036094F90D00FFF71D
:1095100039FB94F90C00FFF735FB94F90E00FFF7C7
:1095200031FB94F90F0068E6082933D1002A00F0D6
:109530008E8192F9023021337FF4F5AD0C23537004
:109540000168134B917046F821301278FFF776FBD3
:10955000E6E500BFCDBA00000060004044130020E3
:10956000A1C3000000E100E069C200008DC400005A
:109570004DC50000D5B70000B5B7000075B90000B3
:1095800061BE000041BD000005BF000099BF0000A2
:1095900031C60000092974D1002A3FF4D3AD5768C1
:1095A00097F90230213361D192F808A00168A94BE4
:1095B000D2F80090B9704FF0060B87F806B052460B
:1095C00046F82130FFF7D8FCA34C97F90220BB796D
:1095D000DFF8B082A1181B01DBB281F8003301680B
:1095E0009E4B48F82290013101605246797087F80D
:1095F00005B046F82130FFF7CFFC97F901207B79C1
:10960000A1181B01DBB281F800330168944B48F8C4
:109610002290013101605246397187F808B046F84E
:109620002130FFF7D9FC97F904203B7AA1181B01E0
:10963000DBB281F8003301688A4B48F8229001318F
:1096400001605246F97087F807B046F82130FFF7FD
:10965000B3FC97F90320FB7914441B01DBB284F8B7
:109660000033036848F822900133036097F9020041
:10967000FFF788FA97F90100FFF784FA97F90400D9
:10968000BBE50A2978D1002A3FF45CAD576897F909
:109690000230213361D192F808A00168724BD2F8F0
:1096A0000090B9704FF0060B87F806B0524646F8A6
:1096B0002130FFF7F1FB684C97F90220BB79DFF806
:1096C000C481A1181B01DBB281F800330168674B2C
:1096D00048F82290013101605246797087F805B050
:1096E00046F82130FFF7F4FB97F901207B79A118A8
:1096F0001B01DBB281F8003301685D4B48F8229012
:10970000013101605246397187F808B046F82130BE
:10971000FFF716FC97F904203B7AA1181B01DBB276
:1097200081F800330168534B48F822900131016001
:109730005246F97087F807B046F82130FFF7E4FB8E
:1097400097F90320FB7914441B01DBB284F8003342
:10975000036848F822900133036097F90200FFF78D
:1097600011FA97F90100FFF70DFA97F90400FFF7D6
:1097700009FA97F9030040E50B2968D1002A3FF464
:10978000E1ACD2E900140C23237594F91530213390
:1097900052D10368384A637546F82320226822B9FB
:1097A000C033364A4A2042F8230094F91500237D3D
:1097B000334F00F1604202F561421B01DBB282F8D7
:1097C00000332A682F4B43F82010501C2860A075E6
:1097D00046F82070206820B9C13228484D2740F84B
:1097E000227094F91670227D07F1604000F5614007
:1097F0001201D2B280F800232A6843F82710501CC7
:10980000214F2860E07546F82070206820B9C132E9
:109810001A484E2640F8226094F91760227D06F11E
:109820006040120100F56140D2B280F8002343F895
:1098300026102B6801332B6094F91500FFF7A2F96D
:1098400094F91600FFF79EF994F91700D5E4002467
:1098500078E400BF0DA8000000E100E081A700004F
:10986000A1A90000C9A80000C9B5000031B60000D8
:10987000E1B60000A5B60000CDCC000000600040BD
:10988000A1CD000044130020BDCE000007B54FF06D
:10989000FF330093172216210248FEF745FD03B05F
:1098A0005DF804FB3C0E00200A460146014802F028
:1098B0007DB900BFEC13002030B401E0013B12D0B1
:1098C00004680C409442F9D001E0013B0FD00468D9
:1098D0000C409442F9D1002502680A40944203D119
:1098E0000135AB42F8D10025284630BC70471D46F3
:1098F000284630BC704700BFF8B5104B33F83050E5
:109900000F48EBB22E1201259D400029ADB24FF059
:1099100030074FEA461607FB02F34FF0120414BF5C
:109920002A460022B3FBF4F329463044FFF7C4FF74
:1099300018B160432830B0FBF7F0F8BD64EF0000C9
:1099400006000440344B1B6870B599424FF0000488
:1099500004804480848016D8304B03EBC101234639
:109960004E68E1B236F811101AB901F03E050A2D21
:1099700004E0012A08D101F03E05082D0AD00904AF
:1099800004F10104EDD570BD022A08D101F03E05B5
:10999000042DF2D15D1C20F81310EBB2EFE7032A7F
:1099A00004D101F03E05062DE1D1F3E7042A02D1EE
:1099B00001F03A05E1E7052A02D101F03A05D6E7C0
:1099C000062A03D101F03E05102DD7E7072A05D15D
:1099D00001F03E05122DDDD0182DCFE7082A03D166
:1099E00001F03E05022DC9E70A2A03D101F03E0528
:1099F000142DC3E70B2A03D101F03E051C2DBDE752
:109A00000C2A03D101F03E051A2DB7E70D2AB6D175
:109A100001F03E051E2DB1E79CF0000064EF000050
:109A200010B5029C401AE41A6043521A90FBF2F0FF
:109A3000184410BD2DE9F04106460D4601EB020821
:109A40000C464445A4EB050707D0336814F8011B06
:109A50001B68304698470028F3D13846BDE8F081AE
:109A600010B5002814BF04460124204603F090FFDF
:109A700030B900F015F808B903F07CFF8047F4E72F
:109A800010BD0368DB0706D4437803B1FFDE012372
:109A900043701846704700207047012303607047E9
:109AA000024B1868BFF35B8F704700BFE8120020BD
:109AB00000F000B803F074BF81F0004102E000BF85
:109AC00083F0004330B54FEA41044FEA430594EA7E
:109AD000050F08BF90EA020F1FBF54EA000C55EAB9
